:100000000C94AA4E0C94DB4E0C94DB4E0C94DB4EFD
:100010000C94DB4E0C94D29B0C94DB4E0D94636CD1
:100020000C945D9B0C94DB4E0C94DB4E0C94DB4EDD
:100030000D9433810C94DB4E0D94440A0D94F151D0
:100040000C94DB4E0C9440EB0C94DB4E0C94DB4E8A
:100050000C94DB4E0C94DB4E0C94DB4E0D94B82FBD
:100060000C94DB4E0D94C44C0C94DB4E0C94DB4E84
:100070000C94DB4E0C94DB4E0C94DB4E0C94DB4E5C
:100080000C94DB4E0C94DB4E0C94DB4E0C94DB4E4C
:100090000D94804C0C94DB4E0C94DB4E0C94DB4E98
:1000A0000C94DB4E0C94DB4E0D9469510C94DB4E9A
:1000B0000C94DB4E0D944B510C94DB4E0C94DB4EA8
:1000C0000C94DB4E0C94DB4E0C94DB4E0D94BE5026
:1000D0000C94DB4E0C94DB4E0C94DB4E0C94DB4EFC
:1000E0000C94DB4E4BAA54AAF7A9C6A996A943AD16
:1000F0008FAAAEAB44AC9AACB6ACEDACCFDC76DC40
:10010000CFDCD2DC43DD74DDCFDCCFDC96DDBFE1BC
:10011000C2E1B1E1B5E1BBE1F9E1C6E1CAE1D0E19B
:10012000D4E1D8E1DEE1E2E1E6E1F9E1ECE1F0E1A0
:10013000F4E1ECE5F1E5F6E500E60AE683E614E62F
:100140001CE624E62EE638E642E651E65BE683E668
:1001500065E66FE679E637026B016901FF0115027A
:10016000650293015B020702F701930183012702F5
:100170001B027F017B026D02E101810129026702FE
:1001800063011902B901B9018501B9018501630251
:100190004B02470233029901E70103022B02AF0130
:1001A00075025F02C301BB014F0165011D027501AC
:1001B0008D01010269027B01550167017702CF01C0
:1001C000A1019501084AD73B3BCE016E84BCBFFD1F
:1001D000C12F3D6C74319ABD56833DDA3D00C77F17
:1001E00011BED9E4BB4C3E916BAAAABE00000080B0
:1001F0003F05A84CCDB2D44EB93836A9020C50B93F
:10020000918688083CA6AAAA2ABE000000803F0763
:10021000634236B79BD8A71A39685618AEBAAB55A1
:100220008C1D3CB7CC5763BD6DEDFD753EF6177266
:1002300031BF000000803F08000000BE9224491238
:100240003EABAAAA2ABECDCCCC4C3E00000080BE5C
:10025000ABAAAAAA3E00000000BF000000803F0039
:1002600000000000084178D3BB4387D1133D190E2D
:100270003CC3BD4282AD2B3E68EC8276BED98FE195
:10028000A93E4C80EFFFBE01C4FF7F3F000000008D
:1002900000000D94CD030D9453030D940D420D9465
:1002A000535C0D94424C0D94C1000D94899E0D94A5
:1002B00040010D9404380D944F440D94AB5A0D94A5
:1002C00089020D942D4C0D9438300D94359E0D946B
:1002D000959E0D942D050D941B050D94EC4B0D94DE
:1002E00025550D9490330D9496350D94549E0D9490
:1002F000EB640D9488000D947D9E0D94F5580D943B
:10030000D0050D94FD2F0D94A8050D947C4B0D94F4
:100310008B5A0D94F4540D94B8390D94579E0D9446
:100320003C470D945C640D94E6040D94CA9E0D94B4
:100330000A4C0D94065D0D947C3C0D94E4020D94E2
:10034000E04B0D94BE9E0D94CF490D94FC3B0D9453
:1003500026420D9451370D94723D0D94FC4B0D9433
:10036000DA5C0D9462590D9423020D9400560D949D
:1003700015020D946C4B0D94855C0D9433470D94D0
:10038000E44B0D94BF590D94B35C0D946C5A0D94CD
:1003900026030D94FB2E0D9415380D94C1380D9441
:1003A000BB9E0D94A83D0D94927F0D9411640D9405
:1003B00056550D94034C0D94F8D40D94A9040D9446
:1003C0001F4C0D94F02F0D943B4C0D940D390D9452
:1003D000FB5C0D94D7360D94E84B0D9419420D94A7
:1003E0006F360D94615E0D940D380D943D480D945B
:1003F000A2050D9434020D94114C0D947F5E0D9462
:100400003B050D94779E0D94F05C0D94C7390D94C7
:10041000A6050D947D650D94263E0D9473040D94F0
:100420008F560D94E0440D945B4C0D9446050D944D
:10043000823D0D944E300D94BA050D94419E0D945D
:10044000C53D0D9407360D94184C0D94AE550D9482
:10045000B4050D940F300D94E55C0D94F0580D9497
:1004600090030D94845A0D94365D0D94623F0D9463
:10047000FC040D94095A0D94344C0D94F2410D94E2
:10048000EB000D941C020D94F54B0D949C350D94CE
:10049000FF5A0D9451480D94824B0D94D6410D9402
:1004A000BD560D94264C0D942A020D9427060D94EA
:1004B000FF480D9475430D9493050D94553E0D948E
:1004C0004B5D0D94BB3D0D947F4B0D947C050D94BD
:1004D00016300D947A9E0D94953D0D94E22F0D9457
:1004E000FC410D9401040D942A470D945B5D0D941D
:1004F000A19E0D946FBC0D94D42F0D943D040D94CA
:1005000021475F5345435F4C414E470000000000C8
:1005100000000000000000000000000000000000DB
:1005200000000000000000000000000000000000CB
:1005300000000000000000000000000000000000BB
:1005400000000000000000000000000000000000AB
:10055000000000000000000000000000000000009B
:10056000000000000000000000000000000000008B
:10057000000000000000000000000000000000007B
:10058000000000000000000000000000000000006B
:10059000000000000000000000000000000000005B
:1005A000000000000000000000000000000000004B
:1005B000000000000000000000000000000000003B
:1005C000000000000000000000000000000000002B
:1005D000000000000000000000000000000000001B
:1005E000000000000000000000000000000000000B
:1005F00000000000000000000000000000000000FB
:10060000A55AB44B992C5F01BEB172665F013337B6
:10061000CE02DE02F102010314032103340374034A
:10062000AC03B703C803E903F103F2030B04350479
:1006300047045A04A704F104030507051505250519
:10064000340544055505B305BA05C505C905D905E1
:10065000FE050E061B0626062F063806B206C00645
:1006600038074D074E075C076D0780079007AA07FC
:10067000B707250834085C085D0864086A087C0828
:100680008F083E093F099C09A709B809C809DB0979
:10069000E109E809130A220A2A0A3C0A830A8A0A9B
:1006A000920AA50AB50ABF0AD10ADF0AED0AFB0AB7
:1006B0000F0B1B0B280B360B5E0B720B860B970B6D
:1006C000AA0BAB0BD10BE10BF20B520C8C0C910C67
:1006D000A50CB00CC40CD90C0B0D1D0D250D9F0DD8
:1006E000B00DC30DD80DED0D010E120E260E390EF4
:1006F0004C0E5F0E720E850E860ED10EFD0E0A0F89
:100700001E0F320F580F6D0F3310A510B610C61004
:10071000CD10D910E910FB105B116C1181119411EF
:100720009511A211B211C811D711E411F0112812BC
:1007300029124C126E127B1286129612A612BA124F
:10074000BB12E412E512EC121B132A1331133C13F3
:10075000471355135C136B13761381138C139E137D
:10076000AE13B213B613C313EC13FA13611495143A
:100770009A14E51424152F1540154B155F156F15A8
:1007800083151616541691169B16111745177917CF
:10079000AA17CC17051836186218AB18BE18EC1833
:1007A00001190E193B1950198D198E199E19B1197D
:1007B000C619DB19E719FA190E1A221A511AC61AA4
:1007C000D11A2C1B921BB81BC51BEE1B301C421CE4
:1007D000901CA31CB11CC41CD71CE31CEC1C581D92
:1007E000611D681D8F1D9E1DAB1DBB1DC51DD71D29
:1007F000EC1D371E8F1E9D1EA61EB61E011F051F57
:100800000B1F111F1D1F1E1F2F1F341F401F441FB2
:10081000491F8C1F931F9B1FA21FEE1FFB1F0E2043
:10082000162017201F2032203F207C208E20B5204C
:100830004221732174217521F621052217221E22DF
:100840002F224422582267227922802292229B2240
:10085000A322B822F1221E2356237D23A223C323E1
:10086000D523DF23F2231E2422246A24A424F72480
:10087000F82403254A25A325FA250C265A26AE2658
:1008800000271227C127FA270528062807280E283F
:100890001C282F2837283D284728552856287F28E8
:1008A0008828A728AE28B928F6286B29B629392A1E
:1008B000872A042B182B2D2B882B1E2C302C392CFF
:1008C000462C532C5A2C5B2C6C2C772C862C2030ED
:1008D0002E33206F75202B616E6369656E00465361
:1008E0002076302E33206F75202B616E6369656E24
:1008F0000020302E34206F75202B726563656E7476
:100900000046532076302E34206F75202B7265639D
:10091000656E74004574617420696E636F6E6E75E8
:10092000004F666673657420706F696E74205B306B
:100930003B305D004C6120646574656374696F6E63
:100940002064650A63726173682070657574206540
:100950007472650A616374697665207365756C6588
:100960006D656E7420656E0A6D6F6465204E6F72E2
:100970006D616C00415454454E54494F4E3A0A44FF
:100980006574656374696F6E20646520637261735A
:10099000680A6465736163746976656520656E0ACB
:1009A0006D6F64652066757274696600416A75735F
:1009B000746572205A3A00546F7574206573742000
:1009C000636F727265637400546F7574206573741D
:1009D00020707265742E20426F6E6E6520696D7096
:1009E00072657373696F6E2100416D6269616E7427
:1009F00000006574206170707579657A2073757276
:100A0000206C6520626F75746F6E005A7E63617230
:100A100072696167657320676175636865202B2063
:100A200064726F69746520746F757420656E2068D8
:100A30006175743F004D69736520612030206465E5
:100A4000732061786573004175746F6368617267C4
:100A5000652064752066696C2E0043686172676565
:100A60006D656E74206175746F2064752066696CA5
:100A7000616D656E7420756E697175656D656E74F6
:100A8000207369206C6520636170746575722064E1
:100A9000652066696C616D656E7420657374206194
:100AA00063746976652E004368617267656D656E73
:100AB00074206175746F2E2064752066696C2E2019
:100AC0006163746976652C206170707579657A2030
:100AD000737572206C6520626F75746F6E2065741B
:100AE00020696E736572657A206C652066696C2E6C
:100AF000004C6F6E6775657572206465206C2761A8
:100B0000786500417865004C69742F4368617566AB
:100B10006661676500506C6174656175207465720B
:100B20006D696E6500436861756666652064752051
:100B30006C6974005265676C61676520706C6174E4
:100B4000656175005465737420646520636F757208
:100B5000726F696500436170742E206E6F6E206441
:100B600065636C656E6368652070656E64616E7444
:100B700020717565206A65206E6976656C65206CEC
:100B80006520706C61746561752E204465627269C0
:100B9000732073757220627573653F20456E206106
:100BA0007474656E7465206427756E207265736554
:100BB000742E004272696C6C2E004C756D696E6FFC
:100BC00073697465004C69740053746174757420A2
:100BD000636F7572726F696500436F7570757265CA
:100BE0002064657465637465652E20526570726556
:100BF0006E64726520696D707265732E3F0043618B
:100C00006C69622E206D697365206120300043613C
:100C10006C69627265722058595A0043616C69624E
:100C2000726572205A0043616C6962726572003E9F
:100C3000416E6E756C65720043616C6962726174BD
:100C4000696F6E2064652058595A2E20546F757252
:100C50006E657A206C6520626F75746F6E20706FA0
:100C60007572206661697265206D6F6E74657220A1
:100C70006C276578747275646575722064616E7333
:100C8000206C27617865205A206A75737175276119
:100C90007578206275746565732E20436C69717573
:100CA000657A20756E6520666F6973206661697468
:100CB0002E0043616C6962726174696F6E205A0024
:100CC00043616C6962726174696F6E206465205A59
:100CD0002E20546F75726E657A206C6520626F7578
:100CE000746F6E20706F7572206661697265206D19
:100CF0006F6E746572206C276578747275646575A3
:100D0000722064616E73206C27617865205A206AB6
:100D10007573717527617578206275746565732EBA
:100D200020436C697175657A20756E6520666F6900
:100D30007320666169742E0043616C69627261742C
:100D4000696F6E207465726D696E65650000436140
:100D500072746520726574697265650056657269A2
:100D60006669632E206669636869657200436F7502
:100D70006C65757220696E636F727265637465006D
:100D8000526566726F6964697373656D656E740030
:100D9000436F70696572206C61206C616E67756568
:100DA0002063686F697369653F00446574656374A7
:100DB0002E63726173680043686F6973697373654A
:100DC0007A20756E2066696C616D656E7420706F37
:100DD0007572206C612043616C6962726174696F25
:100DE0006E206465206C61205072656D6965726566
:100DF00020436F756368652065742073656C656357
:100E000074696F6E6E657A2D6C65206465707569A6
:100E100073206C65206D656E752061206C2765639D
:100E200072616E2E0043726173682064657465633D
:100E300074652E0043726173682064657465637421
:100E4000652E20506F7572737569767265206C27F8
:100E5000696D7072657373696F6E3F0000416374F2
:100E600075656C00446174653A004661697420647C
:100E70006520636F6D6D756E69747900446573618B
:100E8000637469766572206D6F7465757273004C5A
:100E9000612064697374616E636520656E74726548
:100EA000206C6120706F696E7465206465206C61D0
:100EB0002062757365206574206C6120737572669D
:100EC00061636520647520706C6174656175206E66
:100ED00027612070617320656E636F726520657491
:100EE00065207265676C65652E2053756976657A35
:100EF000206C65206D616E75656C2C206368617077
:100F000069747265205072656D69657273207061D5
:100F1000732C2073656374696F6E2043616C696222
:100F2000726174696F6E206465206C6120707265F7
:100F30006D6965726520636F756368652E00005684
:100F40006F756C657A2D766F757320726566616951
:100F50007265206C27657461706520706F757220F2
:100F60007265616A7573746572206C612068617561
:100F70007465757220656E747265206C612062758F
:100F80007365206574206C6520706C617465617593
:100F900020636861756666616E743F00436F7272AC
:100FA0006563742D453A0052656D6F6E74657220ED
:100FB0006C652066696C2E004C652066696C2E207D
:100FC00072656D6F6E7465004275746565206E6F35
:100FD0006E2061747465696E746500427574656530
:100FE0000042757465657300457272657572202DD7
:100FF000206C61206D656D6F69726520737461741A
:10100000697175652061206574652065637261731F
:10101000656500436F7570652066696C616D656E0E
:101020007400436F7570657572004A6520636F7553
:1010300070652066696C616D656E7400455252453D
:1010400055523A204C652063617074657572206456
:10105000652066696C616D656E74206E65207265D1
:10106000706F6E64207061732C207665726966699A
:10107000657A206C65206272616E6368656D656E6D
:10108000742E00536F6D6272650045525245555281
:101090003A0056656E74696C6F2065787472756479
:1010A0006575723A00496E666F7320657874727563
:1010B0006465757200457874727564657572005365
:1010C0007461742E2064276563686563204D4D55F7
:1010D00000462E206175746F63686172672E00533D
:1010E0007461742E206427656368656300566974B3
:1010F000657373652076656E742E00546573742075
:1011000064752076656E74696C61746575720056DD
:10111000657269662076656E742E00436170746531
:1011200075722046696C2E0046696E732066696C84
:10113000616D656E740046696C616D656E742065E5
:1011400078747275646520657420617665632062C9
:101150006F6E6E6520636F756C6575723F004669D2
:101160006C616D656E74206E6F6E2063686172676E
:101170006500436170746575722064652066696CF2
:10118000616D656E740046696C616D656E74207585
:1011900074696C6973650054656D707320642769A8
:1011A0006D7072657373696F6E000046696368697C
:1011B000657220696E636F6D706C65742E20436F6D
:1011C0006E74696E756572207164206D656D653F22
:1011D000004D6F7576656D656E742066696E616C25
:1011E0000043616C2E203165726520636F75636802
:1011F0006500442761626F72642C206A6520766105
:101200006973206C616E636572206C652041757432
:101210006F2D7465737420706F75722076657269B6
:1012200066696572206C65732070726F626C656DA3
:101230006573206427617373656D626C61676520F7
:101240006C657320706C757320636F6D6D756E7354
:101250002E00436F72726967657A206C6520707228
:101260006F626C656D65206574206170707579655D
:101270007A20737572206C6520626F75746F6E20B2
:10128000737572206C61204D4D552E00466C75783B
:101290000056656E74696C6F20696D70722061769E
:1012A000616E743F004176616E74205B756D5D0008
:1012B00056656E74696C6F73206176742F67617503
:1012C000636865004368617566666167652F546889
:1012D00065726D6973746F720043686175666661EB
:1012E0006765206465736163746976656520706104
:1012F00072206C6520636F6D707465757220646513
:101300002073656375726974652E00436861756644
:101310006665207465726D696E65652E004368614F
:101320007566666500426F6E6A6F75722C206A651D
:10133000207375697320766F74726520696D7072A1
:10134000696D616E7465204F726967696E616C20AA
:1013500050727573612069332E20566F756C657AF3
:101360002D766F757320717565206A6520766F75AF
:101370007320677569646520612074726176657297
:1013800073206C652070726F63657373757320646E
:1013900027696E7374616C6C6174696F6E3F004392
:1013A00068616E6765722066696C616D656E740058
:1013B0004368616E67656D656E74207265757373E1
:1013C0006921004368616E676520636F72726563AF
:1013D00074656D656E743F0056657269662E207087
:1013E0006C6174656175206368617566005665722D
:1013F000696669636174696F6E206275746565738F
:101400000056657269662E20647520686F74656E7B
:10141000640056657269662E20646573206361708E
:101420007465757273005665726966696361746983
:101430006F6E206178652058005665726966696331
:101440006174696F6E206178652059005665726914
:101450006669636174696F6E20617865205A004324
:10146000686F6973697220657874727564657572E6
:101470003A0043686F69782064752066696C616D15
:10148000656E743A00004A652076616973206D616B
:10149000696E74656E616E74206C616E6365722036
:1014A0006C612063616C6962726174696F6E20584F
:1014B000595A2E2043656C61207072656E647261AA
:1014C000203132206D696E20656E7669726F6E2EE6
:1014D000004A652076616973206D61696E74656E7E
:1014E000616E74206C616E636572206C6120636153
:1014F0006C6962726174696F6E205A2E0045637266
:10150000616E206427696E666F00496E736572654F
:101510007A206C652066696C616D656E7400466941
:101520006C2E206573742D696C2063686172676529
:101530003F00457374206C6120706C61717565208B
:10154000737572206C6520706C61742E2063686105
:10155000756666616E743F004563686563732064F9
:1015600065726E6965726520696D702E00426F6EDE
:101570006A6F75722C206A65207375697320766FA7
:1015800074726520696D7072696D616E7465204F4B
:10159000726967696E616C2050727573612069337E
:1015A0002E204A65207661697320766F75732061FD
:1015B00063636F6D7061676E657220617520636F24
:1015C000757273206427756E206272656620707272
:1015D0006F636573737573206465207265676C61F2
:1015E00067652C20717569207065726D6574747201
:1015F000612064652063616C6962726572206C654C
:10160000205A2D617869732E2041707265732063B2
:10161000656C612C20746F75742073657261207025
:1016200072657420706F757220696D7072696D6576
:10163000722E00536920766F7573206176657A206B
:10164000642761757472657320666575696C6C6575
:101650007320642761636965722C202063616C6963
:101660006272657A206C65757273207072652D7276
:1016700065676C616765732064616E73205265678E
:101680006C61676573202D20436F6E666967204823
:1016900057202D20506C6171756520656E20616347
:1016A0006965722E004465726E6965726520696DA8
:1016B000707265732E0056656E74696C6F20676179
:1016C000756368653F0047617563686500476175CC
:1016D000636865205B756D5D00436F72726563744E
:1016E000696F6E206C696E2E00416A757374657245
:1016F000205A20656E206469722E00566575696CEB
:101700006C657A20696E7365726572206C652066FF
:10171000696C616D656E742028206E65206C652093
:101720006368617267657A20706173292064616EF5
:1017300073206C276578747275646575722C2070DF
:10174000756973206170707579657A207375722080
:101750006C6520626F75746F6E2E004368617267EE
:1017600065722066696C616D656E740043686172B4
:10177000672E206465206C6120636F756C657572DF
:10178000004368617267656D656E742064752066DC
:10179000696C2E0000506F756C6965206C61636820
:1017A000650043686172676572206C6120627573C1
:1017B00065004D3131372043616C2E2031657265F3
:1017C00020636F75636865004D656E752070726982
:1017D0006E636970616C004E697665617520627236
:1017E000696C6C004E69762E20736F6D62726500B5
:1017F0004A65206D6573757265206C61206861753E
:1018000074657572206465207265666572656E63C5
:101810006520647520706F696E7420646520636153
:101820006C69627261676500004D4D55204F4B2E0B
:101830002052657072697365206465206C61207048
:101840006F736974696F6E202E2E2E004D4D5520DA
:101850004F4B2E205265636861756666616765202F
:101860006465206C6120627573652E2E2E005661B2
:10187000722E206D657375726565004563686563DA
:1018800073204D4D55004465662E20636861726774
:101890002E204D4D55004465662E206368617267A9
:1018A0002E204D4D55004D4D55204F4B2E2052654D
:1018B0007072697365202E2E2E00004669726D7756
:1018C000617265204D4B33206465746563746520D7
:1018D00073757220696D7072696D616E7465204DEB
:1018E0004B33530000467572746966004C65204D99
:1018F0004D55206E6563657373697465206C27614F
:101900007474656E74696F6E206465206C277574DD
:10191000696C697361746575722E004465662E206A
:10192000616C696D2E204D4D550046757274696667
:101930000050756973732E6175746F00486175741A
:101940002E7075697373004D4D553220636F6E6E46
:1019500065637465004D6F74657572004465706CE5
:1019600061636572206C27617865004465706C6105
:101970006365722058004465706C6163657220591C
:10198000004465706C61636572205A005061732079
:101990006465206D6F7576656D656E742E0050619F
:1019A0007320646520636172746520534400492F7D
:1019B00044004E6F6E004E6F6E20636F6E6E6563F7
:1019C0007465004E6F7576656C6C65207665727314
:1019D000696F6E206465206669726D77617265203B
:1019E000646973706F6E69626C653A004E6520744D
:1019F0006F75726E6520706173004D61696E7465FC
:101A00006E616E74206A6520766169732063616C13
:101A10006962726572206C612064697374616E63BF
:101A20006520656E747265206C6120706F696E74DC
:101A300065206465206C6120627573652065742083
:101A40006C61207375726661636520647520706CCB
:101A5000617465617520636861756666616E742E78
:101A6000004D61696E74656E616E74206A652076E2
:101A7000616973207072656368617566666572205E
:101A80006C61206275736520706F757220647520BB
:101A9000504C412E004275736500416E6369656E5E
:101AA00073207265676C616765732074726F7576F9
:101AB00065732E204C65205049442C206C657320A2
:101AC000457374657073206574632E207061722095
:101AD000646566617574207365726F6E74207265DB
:101AE000676C6573005265746972657A206D61690F
:101AF0006E74656E616E74206C27696D70726573AB
:101B000073696F6E2064652074657374206465204A
:101B10006C6120706C6171756520656E2061636910
:101B200065722E0056656E742E20627573650050C6
:101B300061757365206465206C27696D70722E0075
:101B400043616C69622E205049440043616C6962B4
:101B50002E20504944207465726D696E656500439E
:101B6000616C6962726174696F6E20504944004310
:101B7000686175666665206465206C612050494E19
:101B8000444100506C6163657A20756E652066651E
:101B900075696C6C65206465207061706965722080
:101BA000736F7573206C6120627573652070656E4C
:101BB00064616E74206C612063616C69627261742F
:101BC000696F6E206465732034207072656D69657D
:101BD000727320706F696E74732E205369206C616C
:101BE000206275736520616363726F636865206C42
:101BF00065207061706965722C2065746569676E17
:101C0000657A2076697465206C27696D7072696DDC
:101C1000616E74652E004E6574746F79657A2070FC
:101C20006C617465617520636861756666616E7468
:101C300020656E2061636965722065742061707033
:101C40007579657A20737572206C6520626F757482
:101C50006F6E2E004E6574746F79657A206C61200A
:101C60006275736520706F7572206C612063616CA2
:101C70006962726174696F6E2E20436C697175655B
:101C80007A20756E6520666F697320666169742EAF
:101C900000566572696669657A3A004D65726369D6
:101CA00020646520636F6E73756C746572206E6F4F
:101CB000747265206D616E75656C20657420646555
:101CC00020636F727269676572206C652070726F35
:101CD000626C656D652E20506F75727375697665DF
:101CE0007A20616C6F7273206C27617373697374EF
:101CF000616E7420656E20726564656D61727261DB
:101D00006E74206C27696D7072696D616E74652EDA
:101D1000004F757672657A206C2769646C65722055
:101D20006574207265746972657A206C65206669D5
:101D30006C616D656E74206D616E75656C6C656D42
:101D4000656E742E00506C6163657A206C61207042
:101D50006C6171756520656E2061636965722073C1
:101D60007572206C6520706C6174656175206368A4
:101D700061756666616E742E004170707579657A62
:101D800020737572206C6520626F75746F6E2070A1
:101D90006F757220646563686172676572206C6537
:101DA0002066696C616D656E740052657469726558
:101DB0007A20696D6D6564696174656D656E742006
:101DC0006C652066696C616D656E74005665756939
:101DD0006C6C657A2072657469726572206C65201E
:101DE00066696C616D656E742070756973206170D1
:101DF000707579657A20737572206C6520626F75D5
:101E0000746F6E2E005265746972657A206C612061
:101E1000706C6171756520656E2061636965722003
:101E2000647520706C6174656175206368617566A6
:101E300066616E742E00566575696C6C657A2064F7
:101E40002761626F7264206C616E636572206C61E1
:101E50002063616C6962726174696F6E2058595AAF
:101E60002E00566575696C6C657A206D65747472A8
:101E7000652061206A6F7572206C65206669726DDD
:101E80007761726520646520766F747265204D4DB0
:101E900055322E20456E20617474656E7465206421
:101EA00027756E2072657365742E004D65726369C7
:101EB0002064652070617469656E74657200526596
:101EC000746972657A20642761626F7264206C6540
:101ED000732070726F74656374696F6E73206465CC
:101EE000207472616E73706F72742E00507265632D
:101EF0006861756666657A206C612062757365211C
:101F0000005072656368617566666167650050724E
:101F100065636861756666616765206465206C61EC
:101F200020627573652E204D65726369206465209B
:101F300070617469656E7465722E004D65747465A8
:101F40007A2061206A6F7572206C652046572E00DA
:101F50004170707579657A20737572206C652062A6
:101F60006F75746F6E20706F757220707265636824
:101F7000617566666572206C6120627573652065A7
:101F80007420636F6E74696E7565722E0000436F06
:101F900075702E646520636F7572616E7400496D93
:101FA0007072657373696F6E20616E6E756C6565B6
:101FB000004368617566666520706F75722063689E
:101FC00061726765720043686175662E706F757225
:101FD000206465636861726765720056656E742E71
:101FE00020696D70723A00496D70722E20646570C0
:101FF000756973206C61205344004170702E20730A
:1020000075722073757220626F75746F6E00496D02
:102010007072657373696F6E20656E207061757381
:1020200065004170707579657A20737572206C65F2
:1020300020626F75746F6E20706F757220726563A9
:1020400068617566666572206C6120627573652EC5
:10205000004C27696D7072696D616E7465206E2722
:10206000612070617320656E636F726520657465B1
:102070002063616C69627265652E205375697665AF
:102080007A206C65206D616E75656C2C20636861CB
:102090007069747265205072656D69657273207025
:1020A00061732C2073656374696F6E2050726F6367
:1020B00065737375732064652063616C6962726116
:1020C00074696F6E2E0056656E742E20696D707285
:1020D00000566575696C6C657A20696E736572650A
:1020E00072206C652066696C616D656E7420646138
:1020F0006E73206C276578747275646575722C2018
:1021000070756973206170707579657A2073757266
:10211000206C6520626F75746F6E20706F75722011
:102120006C6520636861726765722E00566575691B
:102130006C6C657A20696E7365726572206C6520BF
:1021400066696C616D656E742064616E73206C6588
:10215000207072656D6965722074756265206475A2
:10216000204D4D552C207075697320617070757904
:10217000657A20737572206C6520626F75746F6E5E
:1021800020706F7572206C6520636861726765727C
:102190002E00566575696C6C657A20642761626FE4
:1021A0007264206368617267657220756E2066696B
:1021B0006C616D656E742E00417272696572652086
:1021C0005B756D5D005356502C20646563686172C9
:1021D00067657A206C652066696C616D656E742038
:1021E00065742072656573736179657A2E00535644
:1021F000502C20766572696669657A206C6120636F
:102200006F6E6E6578696F6E20647520636170749F
:102210006575722049522065742064656368617237
:102220006765206C652066696C616D656E742E0053
:1022300052656375702E20696D7072657373696F76
:102240006E005265746972657A206C27616E6369ED
:10225000656E2066696C616D656E7420707569735A
:10226000206170707579657A20737572206C6520B5
:10227000626F75746F6E20706F7572206368617223
:10228000676572206C65206E6F75766561752E00CE
:102290005265696E69742E2063616C69622E2058E4
:1022A000595A005265696E697469616C6973657227
:1022B000005265707269736520696D707265737321
:1022C000696F6E0052657072697365206465206C79
:1022D00027696D70722E0044726F697465205B759A
:1022E0006D5D00506F727420525069004C616E63D6
:1022F000656D656E74206465206C27417373697326
:1023000074616E74207375707072696D657261208E
:102310006C657320726573756C746174732061638E
:102320007475656C732064652063616C69627261A9
:1023300074696F6E20657420636F6D6D656E636583
:1023400072612064752064656275742E20436F6E1F
:1023500074696E7565723F00436172746520534401
:102360000044726F697465005265636865726368E2
:102370006520706F696E742063616C69627261744C
:10238000696F6E20647520706C61746561750043BF
:10239000686F69736972206C616E6775650041755D
:1023A000746F2D74657374204F4B004465627574AF
:1023B000206175746F2D74657374004175746F2D91
:1023C0007465737400457272657572206175746FFF
:1023D0002D7465737421004563686563206465200E
:1023E0006C276175746F2D74657374004C65205390
:1023F000656C66746573742073657261206C616EC0
:10240000636520706F75722063616C6962726572BA
:10241000206C612072656D6973652061207A657238
:102420006F20707265636973652073616E732063DA
:102430006170746575720053656C656374696F6E65
:102440006E657A206C612074656D7065726174755B
:102450007265206465207072656368617566666187
:102460006765206465206C612062757365207175F5
:102470006920636F72726573706F6E64206120767D
:102480006F747265206D617465726961752E00529A
:1024900065676C65722074656D702E3A00526567D1
:1024A0006C61676573004166666963686572206286
:1024B0007574656573004365727461696E73206637
:1024C00069636869657273206E65207365726F6EEB
:1024D00074207061732074726965732E204D617869
:1024E00020313030206669636869657273207472C8
:1024F0006965732070617220646F73736965722EF1
:102500000054726900417563756E004865757265A7
:10251000004465766961742E7365762E00005472EE
:102520006920646573206669636869657273004633
:102530006F7274004465766961742E6C65672E0055
:10254000536F6E0046696E730050726F626C656DFA
:10255000652072656E636F6E7472652C20636C69A2
:102560007175657A20737572206C6520626F757461
:102570006F6E20706F7572206E6976656C6C657217
:10258000206C27617865205A2E2E2E003120666F30
:102590006973005669746573736500546F75726E64
:1025A0006500556E652074656D7065726174757235
:1025B0006520616D6269616E746520737461626C1F
:1025C000652064652032312D3236432065742075D4
:1025D0006E20737570706F727420737461626C65B5
:1025E00020736F6E74207265717569732E00537459
:1025F0006174697374697175657300417272657491
:10260000657220696D7072657373696F6E004152F7
:10261000524554452E0000456368616E676500436E
:10262000686F69782064752066696C616D656E7489
:102630003A0043616C69622E2054656D702E005320
:10264000656C656374696F6E6E657A206C61207469
:10265000656D70657261747572652071756920634E
:102660006F72726573706F6E64206120766F747222
:1026700065206D617465726961752E0043616C69D6
:1026800062726174696F6E2074656D702E004563AF
:10269000686563206465206C612063616C696272A7
:1026A0006174696F6E20656E2074656D706572610E
:1026B00074757265004C612063616C69627261744B
:1026C000696F6E20656E2074656D706572617475DA
:1026D000726520657374207465726D696E6565201E
:1026E000657420616374697665652E204C61206392
:1026F000616C6962726174696F6E20656E207465C9
:102700006D70657261747572652070657574206591
:1027100074726520646573616374697665652064AD
:10272000616E73206C65206D656E75205265676CF7
:10273000616765732D3E2043616C2E2054656D707A
:102740002E004361707465757220766572696669E2
:10275000652C207265746972657A206C65206669E3
:102760006C616D656E74206D61696E74656E616E0D
:10277000742E000000496C206661757420746F75BA
:102780006A6F75727320656666656374756572201D
:102790006C612043616C6962726174696F6E205A6A
:1027A0002E20566575696C6C657A20737569767232
:1027B00065206C65206D616E75656C2C20636861A9
:1027C0007069747265205072656D696572732070EE
:1027D00061732C2073656374696F6E2050726F6330
:1027E00065737375732064652063616C69627261DF
:1027F00074696F6E2E0046696C616D656E7420742D
:102800006F74616C0054656D707320746F74616CCB
:1028100020696D70722E005265676C657200546F8E
:1028200074616C2064657320656368656373007010
:102830006F75722063686172676572206C652066CF
:10284000696C2E00706F75722064656368617267D1
:1028500065722066696C2E00446563686172676505
:10286000722066696C2E0044656368617267656DED
:10287000656E742066696C2E00546F74616C65001F
:102880005574696C6973652070647420696D707229
:102890002E0054656E73696F6E7300696E636F6EA0
:1028A0006E7500417474656E7465207574696C6929
:1028B0007361746575722E00417474656E74652061
:1028C000647520726566726F6964697373656D659E
:1028D0006E74206465732062757365206574207062
:1028E0006C617465617520636861756666616E749C
:1028F00000417474656E746520647520726566723B
:102900006F6964697373656D656E74206465206CAE
:102910006120736F6E64652050494E4441004174DC
:1029200074656E74696F6E3A2054797065732064B3
:1029300027696D7072696D616E74652065742064BD
:1029400065206361727465206D657265206D6F64CA
:10295000696669657300417474656E74696F6E3A77
:102960002054797065206465206361727465206D00
:10297000657265206D6F64696669652E00417474C7
:10298000656E74696F6E3A205479706520642769AA
:102990006D7072696D616E7465206D6F64696669D2
:1029A000650044656368617267656D656E74206477
:1029B000752066696C616D656E74207265757373E0
:1029C000693F0045727265757220646520636162BB
:1029D0006C61676500417373697374616E74004460
:1029E000657461696C732063616C69622E2058594B
:1029F0005A0045636865632063616C696272617443
:102A0000696F6E2058595A2E20436F6E73756C741F
:102A1000657A206C65206D616E75656C2E004F7552
:102A20006900566F757320706F7576657A20746FC4
:102A3000756A6F7572732072656C616E6365722062
:102A40006C27417373697374616E742064616E7373
:102A50002043616C6962726174696F6E203E20412F
:102A60007373697374616E742E0043616C69627272
:102A70006174696F6E2058595A204F4B2E204C2795
:102A80006563617274207365726120636F7272692D
:102A90006765206175746F6D6174697175656D65C9
:102AA0006E742E0043616C6962726174696F6E208E
:102AB00058595A204F4B2E204C657320617865730E
:102AC00020582F5920736F6E74206C65676572658E
:102AD0006D656E74206E6F6E2070657270656E64C9
:102AE0006963756C61697265732E20426F6E206236
:102AF0006F756C6F74210000436F72726563742D83
:102B0000583A0043616C6962726174696F6E205853
:102B1000595A204F4B2E204C6573206178657320E5
:102B2000582F5920736F6E742070657270656E64D3
:102B30006963756C61697265732E2046656C6963A3
:102B400069746174696F6E73210043616C696272AC
:102B50006174696F6E2058595A20636F6D70726F7F
:102B60006D6973652E204C657320706F696E747388
:102B70002064652063616C6962726174696F6E20A4
:102B8000656E206176616E74206E6520736F6E7461
:102B900020706173206174746569676E61626C6531
:102BA000732E0043616C6962726174696F6E2058A4
:102BB000595A20636F6D70726F6D6973652E204C6A
:102BC0006520706F696E742064652063616C696252
:102BD000726174696F6E206176616E742064726FC9
:102BE0006974206E2765737420706173206174743A
:102BF0006569676E61626C652E0043686172676526
:102C00007220756E2070617220756E004563686574
:102C1000632063616C6962726174696F6E205859D8
:102C20005A2E204C6520706F696E74206465206395
:102C3000616C6962726174696F6E20647520706C7A
:102C40006174656175206E27612070617320657401
:102C5000652074726F7576652E0045636865632024
:102C600063616C6962726174696F6E2058595A2E83
:102C7000204C657320706F696E74732064652063E7
:102C8000616C6962726174696F6E20656E20617635
:102C9000616E74206E6520736F6E74207061732096
:102CA0006174746569676E61626C65732E0045635B
:102CB0006865632063616C6962726174696F6E201C
:102CC00058595A2E204C6520706F696E74206465C7
:102CD0002063616C6962726174696F6E20617661F4
:102CE0006E742064726F6974206E2765737420702F
:102CF0006173206174746569676E61626C652E0032
:102D000044697374616E63652059206475206D6930
:102D10006E004C27696D7072696D616E7465206319
:102D20006F6D6D656E6365726120612020696D70E5
:102D300072696D657220756E65206C69676E6520BD
:102D4000656E207A69672D7A61672E20546F7572DF
:102D50006E657A206C6520626F75746F6E206A757F
:102D600073717527612061747465696E6472652082
:102D70006C612068617574657572206F7074696D1F
:102D8000616C652E20436F6E73756C74657A206C70
:102D900065732070686F746F732064616E73206C4C
:102DA00065206D616E75656C20286368617069745B
:102DB00072652043616C6962726174696F6E292E5D
:102DC00000566572696669636174696F6E20656E2D
:102DD0002065636865632C207265746972657A206A
:102DE0006C652066696C616D656E74206574207217
:102DF000656573736179657A2E00436F72726563DE
:102E0000742D593A0000005265746F757200566552
:102E100072696669636174696F6E73004661757883
:102E2000206465636C656E6368656D656E740053E0
:102E300074726963746500417665727400436F6EE5
:102E400066696720485700436F6D70656E732E206A
:102E500061696D2E00004669726D77617265204D63
:102E60004B335320646574656374652073757220F9
:102E7000696D7072696D616E7465204D4B33004DE4
:102E80006F6465204D4D55004368616E67656D65E3
:102E90006E74206465206D6F646520656E20636FBD
:102EA0007572732E2E2E004D6F64656C650044693B
:102EB000616D2E2062757365004C6520472D636F30
:102EC000646520612065746520707265706172654B
:102ED00020706F757220756E206E69766561752041
:102EE000646966666572656E742E20436F6E7469E0
:102EF0006E7565723F004C6520472D636F646520D9
:102F00006120657465207072657061726520706FF4
:102F1000757220756E206E697665617520646966CC
:102F2000666572656E742E20566575696C6C657A7F
:102F3000206465636F75706572206C65206D6F64C9
:102F4000656C652061206E6F75766561752E204C0D
:102F500027696D7072657373696F6E206120657487
:102F60006520616E6E756C65652E004C6520472D81
:102F7000636F64652061206574652070726570619F
:102F8000726520706F757220756E65206175747240
:102F9000652076657273696F6E206465206C2769A1
:102FA0006D7072696D616E74652E20436F6E746909
:102FB0006E7565723F004C6520472D636F64652018
:102FC0006120657465207072657061726520706F34
:102FD000757220756E6520617574726520766572F4
:102FE00073696F6E206465206C27696D7072696DFE
:102FF000616E74652E20566575696C6C657A206407
:1030000065636F75706572206C65206D6F64656CAB
:10301000652061206E6F75766561752E204C27697D
:103020006D7072657373696F6E20612065746520C1
:10303000616E6E756C65652E004C6520472D636F63
:1030400064652061206574652070726570617265C9
:1030500020706F757220756E652076657273696F6A
:103060006E20706C757320726563656E7465206484
:1030700075206669726D776172652E20436F6E747C
:10308000696E7565723F004C6520472D636F6465FE
:1030900020612065746520707265706172652070B2
:1030A0006F757220756E652076657273696F6E201C
:1030B000706C757320726563656E7465206475202D
:1030C0006669726D776172652E20566575696C6CE4
:1030D000657A206D65747472652061206A6F7572FF
:1030E000206C65206669726D776172652E204C27B1
:1030F000696D7072657373696F6E20616E6E756C49
:1031000065652E004368617566666520706F75722F
:1031100020636F757065720043686175662E20705C
:103120006F75722072656D6F6E74657200446961AF
:103130006D65747265206465206C612062757365CD
:103140002064616E73206C6573207265676C6167C3
:103150006573206E6520636F72726573706F6E6445
:103160002070617320612063656C75692064616EF5
:1031700073206C6520472D436F64652E20436F6E6E
:1031800074696E7565723F004469616D657472653E
:10319000206465206C6120627573652064616E73C4
:1031A000206C6573207265676C61676573206E655E
:1031B00020636F72726573706F6E6420706173202C
:1031C000612063656C75692064616E73206C652095
:1031D000472D436F64652E204D65726369206465D9
:1031E000207665726966696572206C65207061720F
:1031F000616D657472652064616E73206C65732007
:103200007265676C616765732E20496D70726573B6
:1032100073696F6E20616E6E756C65652E006E69E8
:103220007665617520257320617474656E64750020
:1032300052656E6F6D6D65720053656C6563746980
:103240006F6E6E657200496E666F206361707465A3
:10325000757200506C617175650000506C6171751C
:10326000657320656E20616369657200436F7272D9
:103270006563742D5A3A004D6573757265722078D6
:103280002D666F6973004164722E495020696D701C
:1032900072696D616E74653A000000000000000004
:1032A000000000000000000000000000000000001E
:1032B000000000000000000000000000000000000E
:1032C00000000000000000000000000000000000FE
:1032D00000000000000000000000000000000000EE
:1035000000004B01472D636F646520736C69636530
:103510006420666F72206120646966666572656EFC
:1035200074206C6576656C2E20436F6E74696E75C1
:10353000653F004C01472D636F646520736C6963C0
:10354000656420666F7220612064696666657265D5
:103550006E74206C6576656C2E20506C65617365A9
:103560002072652D736C69636520746865206D6FCA
:1035700064656C20616761696E2E205072696E749B
:103580002063616E63656C6C65642E005001472D8D
:10359000636F646520736C6963656420666F722075
:1035A00061206E65776572206669726D77617265FC
:1035B0002E20506C656173652075706461746520A0
:1035C000746865206669726D776172652E2050722D
:1035D000696E742063616E63656C6C65642E004F68
:1035E00001472D636F646520736C696365642066B1
:1035F0006F722061206E65776572206669726D77E3
:103600006172652E20436F6E74696E75653F004D63
:1036100001472D636F646520736C69636564206680
:103620006F72206120646966666572656E742070D1
:1036300072696E74657220747970652E20436F6EA6
:1036400074696E75653F004E01472D636F64652098
:10365000736C6963656420666F72206120646966BB
:10366000666572656E74207072696E74657220741E
:103670007970652E20506C656173652072652D73BD
:103680006C69636520746865206D6F64656C20618A
:103690006761696E2E205072696E742063616E637B
:1036A000656C6C65642E00CB00507265737320747A
:1036B0006865206B6E6F6220746F2070726568653C
:1036C0006174206E6F7A7A6C6520616E6420636F1E
:1036D0006E74696E75652E00BF00506C6561736510
:1036E00020707265737320746865206B6E6F622042
:1036F000746F20756E6C6F61642066696C616D65B6
:103700006E7400DF0052656D6F7665206F6C64200B
:1037100066696C616D656E7420616E64207072659F
:10372000737320746865206B6E6F6220746F2073F2
:1037300074617274206C6F6164696E67206E657766
:103740002066696C616D656E742E000D00616E649B
:1037500020707265737320746865206B6E6F6200F1
:103760007700496E736572742066696C616D656E71
:1037700074002C00436F6C6F72206E6F7420636F47
:10378000727265637400540046696C616D656E7495
:10379000206E6F74206C6F6164656400690043681B
:1037A000616E67656420636F72726563746C793FE4
:1037B0000085004C6F6164696E6720636F6C6F7287
:1037C0000068004368616E676520737563636573A5
:1037D000732100BD00506C65617365206F70656E6C
:1037E0002069646C657220616E642072656D6F760D
:1037F000652066696C616D656E74206D616E7561C2
:103800006C6C792E0026015761732066696C616DBE
:10381000656E7420756E6C6F61642073756363658B
:10382000737366756C3F00CA00506C6561736520E8
:10383000757067726164652E00AB004E6577206617
:1038400069726D776172652076657273696F6E203B
:10385000617661696C61626C653A00220157616949
:1038600074696E6720666F722050494E4441207023
:10387000726F626520636F6F6C696E670032004320
:10388000726173682064657465637465642E205288
:103890006573756D65207072696E743F0031004309
:1038A000726173682064657465637465642E007169
:1038B0000043686F6F736520657874727564657214
:1038C0003A00720043686F6F73652066696C616DC2
:1038D000656E743A00A6004E6F206D6F76652E00FF
:1038E0000401537461626C6520616D6269656E7478
:1038F0002074656D70657261747572652032312D4A
:10390000323643206973206E6565646564206120EA
:103910007269676964207374616E642069732072D0
:10392000657175697265642E00C300506C656173C2
:10393000652072756E2058595A2063616C696272F5
:103940006174696F6E2066697273742E002001576E
:1039500061697420666F7220757365722E2E2E0059
:1039600046014D4B3353206669726D776172652055
:103970006465746563746564206F6E204D4B3320FD
:103980007072696E74657200FFFF4649524D57416F
:103990005245204352415348210A446562756720CD
:1039A0006461746120617661696C61626C65206636
:1039B0006F7220616E616C797369732E20436F6E34
:1039C0007461637420737570706F727420746F20EB
:1039D0007375626D69742064657461696C732E001F
:1039E0001F00426C61636B6F7574206F6363757247
:1039F0007265642E205265636F76657220707269FD
:103A00006E743F00F00053656C66746573742077C4
:103A1000696C6C2062652072756E20746F20636122
:103A20006C6962726174652061636375726174654B
:103A30002073656E736F726C657373207265686F47
:103A40006D696E672E001301546865726520697395
:103A5000207374696C6C2061206E65656420746FDE
:103A6000206D616B65205A2063616C6962726174BC
:103A7000696F6E2E20506C6561736520666F6C6C8B
:103A80006F7720746865206D616E75616C2C2063A2
:103A9000686170746572204669727374207374650E
:103AA00070732C2073656374696F6E2043616C6959
:103AB00062726174696F6E20666C6F772E00D6003B
:103AC0005072696E74657220686173206E6F742025
:103AD0006265656E2063616C696272617465642001
:103AE0007965742E20506C6561736520666F6C6C0F
:103AF0006F7720746865206D616E75616C2C206332
:103B0000686170746572204669727374207374659D
:103B100070732C2073656374696F6E2043616C69E8
:103B200062726174696F6E20666C6F772E00B000F0
:103B30004F6C642073657474696E677320666F756B
:103B40006E642E2044656661756C74205049442C67
:103B500020457374657073206574632E2077696CDB
:103B60006C206265207365742E0023015761726EAC
:103B7000696E673A20626F7468207072696E74654E
:103B800072207479706520616E64206D6F74686551
:103B900072626F6172642074797065206368616E0F
:103BA0006765642E0025015761726E696E673A2061
:103BB0007072696E746572207479706520636861D3
:103BC0006E6765642E0024015761726E696E673AF4
:103BD000206D6F74686572626F61726420747970B1
:103BE00065206368616E6765642E002D0158595A1F
:103BF0002063616C6962726174696F6E20616C6CC4
:103C00002072696768742E20536B65772077696C22
:103C10006C20626520636F727265637465642061F5
:103C200075746F6D61746963616C6C792E002E011F
:103C300058595A2063616C6962726174696F6E20B1
:103C4000616C6C2072696768742E20582F5920614E
:103C50007865732061726520736C696768746C792C
:103C600020736B657765642E20476F6F64206A6FE1
:103C7000622100310158595A2063616C6962726196
:103C800074696F6E206F6B2E20582F5920617865F4
:103C900073206172652070657270656E646963750A
:103CA0006C61722E20436F6E67726174756C617403
:103CB000696F6E732100330158595A2063616C6932
:103CC00062726174696F6E20636F6D70726F6D697F
:103CD0007365642E2052696768742066726F6E7413
:103CE0002063616C6962726174696F6E20706F69C4
:103CF0006E74206E6F7420726561636861626C65BA
:103D00002E00320158595A2063616C6962726174E5
:103D1000696F6E20636F6D70726F6D697365642E6D
:103D20002046726F6E742063616C6962726174699F
:103D30006F6E20706F696E7473206E6F7420726581
:103D400061636861626C652E00370158595A2063BF
:103D5000616C6962726174696F6E206661696C651D
:103D6000642E2052696768742066726F6E742063D7
:103D7000616C6962726174696F6E20706F696E74D4
:103D8000206E6F7420726561636861626C652E00DD
:103D9000360158595A2063616C6962726174696FA7
:103DA0006E206661696C65642E2046726F6E7420A9
:103DB00063616C6962726174696F6E20706F696EA5
:103DC0007473206E6F7420726561636861626C65E4
:103DD0002E002A0158595A2063616C69627261741D
:103DE000696F6E206661696C65642E20506C656138
:103DF000736520636F6E73756C7420746865206DD5
:103E0000616E75616C2E00350158595A2063616CE2
:103E10006962726174696F6E206661696C65642E97
:103E2000204265642063616C6962726174696F6EBF
:103E300020706F696E7420776173206E6F742066D6
:103E40006F756E642E00BE00506C656173652070E6
:103E50006C61636520737465656C20736865657457
:103E6000206F6E20686561746265642E00380044BE
:103E7000697374616E6365206265747765656E2031
:103E8000746970206F6620746865206E6F7A7A6C32
:103E90006520616E642074686520626564207375B6
:103EA000726661636520686173206E6F742062655D
:103EB000656E20736574207965742E20506C656181
:103EC000736520666F6C6C6F7720746865206D6118
:103ED0006E75616C2C206368617074657220466930
:103EE0007273742073746570732C207365637469C6
:103EF0006F6E204669727374206C617965722063FD
:103F0000616C6962726174696F6E2E00B800506CEA
:103F10006163652061207368656574206F66207039
:103F20006170657220756E64657220746865206EBC
:103F30006F7A7A6C6520647572696E672074686543
:103F40002063616C6962726174696F6E206F6620B4
:103F50006669727374203420706F696E74732E20DA
:103F6000496620746865206E6F7A7A6C652063619B
:103F70007463686573207468652070617065722C65
:103F800020706F776572206F666620746865207098
:103F900072696E74657220696D6D656469617465BE
:103FA0006C792E00C200506C656173652072656D7E
:103FB0006F766520737465656C2073686565742021
:103FC00066726F6D20686561746265642E007900A9
:103FD000497320737465656C207368656574206F20
:103FE0006E20686561746265643F00E90053656135
:103FF000726368696E67206265642063616C6962E0
:10400000726174696F6E20706F696E74008E004DFE
:104010006561737572696E67207265666572656E3B
:10402000636520686569676874206F662063616CEA
:104030006962726174696F6E20706F696E7400BA24
:1040400000506C6561736520636C65616E207468F7
:1040500065206E6F7A7A6C6520666F722063616C82
:104060006962726174696F6E2E20436C69636B20A4
:104070007768656E20646F6E652E000F0041757461
:104080006F20686F6D6500DE005265636F76657244
:10409000696E67207072696E7400C500506C65614E
:1040A00073652077616974001A00426564206C654D
:1040B00076656C696E67206661696C65642E205355
:1040C000656E736F72206469646E27742074726900
:1040D000676765722E20446562726973206F6E2077
:1040E0006E6F7A7A6C653F2057616974696E6720DC
:1040F000666F722072657365742E00C400506C6523
:1041000061736520757064617465206669726D778E
:1041100061726520696E20796F7572204D4D553240
:104120002E2057616974696E6720666F7220726510
:104130007365742E005A0046696E697368696E670C
:10414000206D6F76656D656E7473001C0042726938
:104150006768746E657373005A0141737369737491
:10416000009A0053696C656E740001014F6E6365BF
:1041700000FE00536F756E6400FC004C6F756400A8
:1041800047014D4D55204D6F6465002F004372610E
:104190007368206465742E009D00537465616C74AF
:1041A000680099004E6F726D616C00500046616E40
:1041B0007320636865636B00CC00506175736500A4
:1041C0005800465320416374696F6E003900436F95
:1041D0006E742E00510046696C2E2073656E736FED
:1041E000720067004368616E67652066696C616D87
:1041F000656E74005E00466C6F7700020153706557
:1042000065640044014D61676E65747320636F6D72
:10421000702E00A8004E2F41005D015A2D70726F64
:104220006265206E722E0045014D657368002F0196
:1042300054696D656F75740097004D6F6465000C6F
:10424000004175746F00460044696D001B004272A6
:1042500069676874008D004C6576656C2044696DF3
:104260006D6564008C004C6576656C2042726967F0
:104270006874004E0046616E207370656564001DB1
:104280000042656400AF004E6F7A7A6C6500F300FF
:1042900053657474696E677300CE005072696E74F2
:1042A0002061626F7274656400060153746F702040
:1042B0007072696E74002B00436865636B696E678A
:1042C0002066696C6500590046696C6520696E63FB
:1042D0006F6D706C6574652E20436F6E74696E75BA
:1042E0006520616E797761793F00FFFF0452656652
:1042F00072657368008B004D61696E00FB00536F3F
:104300007274696E672066696C657300F500536F9F
:104310006D652066696C65732077696C6C206E6FC3
:104320007420626520736F727465642E204D61780D
:104330002E204E6F2E206F662066696C6573206993
:104340006E203120666F6C64657220666F72207318
:104350006F7274696E67206973203130302E00DC13
:1043600000506C6561736520756E6C6F61642074BC
:1043700068652066696C616D656E7420666972732C
:10438000742C207468656E20726570656174207489
:1043900068697320616374696F6E2E008300496ED3
:1043A00073657274207468652066696C616D656EF2
:1043B000742028646F206E6F74206C6F61642069B4
:1043C000742920696E746F20746865206578747232
:1043D0007564657220616E64207468656E20707209
:1043E00065737320746865206B6E6F622E003A01EE
:1043F000566572696669636174696F6E206661698A
:104400006C65642C2072656D6F766520746865201C
:1044100066696C616D656E7420616E64207472797A
:1044200020616761696E2E00100153656E736F72B3
:104430002076657269666965642C2072656D6F7699
:1044400065207468652066696C616D656E74206EA8
:104450006F772E00DD00506C6561736520636865C1
:10446000636B207468652049522073656E736F72A8
:1044700020636F6E6E656374696F6E2C20756E6C51
:104480006F61642066696C616D656E742069662079
:1044900070726573656E742E0021015761697469CD
:1044A0006E6720666F72206E6F7A7A6C6520616E1F
:1044B000642062656420636F6F6C696E6700EB0057
:1044C00053656C662074657374204F4B00EC005389
:1044D000656C66207465737420737461727400D1A6
:1044E000005072696E742066616E3A00480045782B
:1044F0007472756465722066616E3A0020004361D3
:104500006C6962726174696E6720686F6D6500091D
:1045100000416C6C20636F7272656374006D0043C0
:104520006865636B696E672073656E736F72730085
:104530006C00436865636B696E6720686F74656EB5
:1045400064006A00436865636B696E672062656436
:10455000007000436865636B696E67205A2061785C
:104560006973006F00436865636B696E672059204B
:1045700061786973006E00436865636B696E6720DC
:10458000582061786973006B00436865636B696EDE
:104590006720656E6473746F707300E30052657317
:1045A000756D696E67207072696E7400B70050494E
:1045B0004E44412048656174696E6700280043617C
:1045C0006C6962726174696F6E20646F6E6500263B
:1045D0000043616C6962726174696E67205A0016EB
:1045E0000042656420646F6E6500170042656420B8
:1045F00048656174696E6700640048656174696E3E
:104600006720646F6E652E00650048656174696E91
:1046100067002A00436172642072656D6F7665647D
:10462000003D014F6E003C014F6666003E01426155
:10463000636B0054015072696E746572206E6F7AFC
:104640007A6C65206469616D657465722064696661
:10465000666572732066726F6D2074686520472DE1
:10466000636F64652E20506C6561736520636865B7
:10467000636B207468652076616C756520696E20B7
:1046800073657474696E67732E205072696E74203E
:1046900063616E63656C6C65642E005301507269D2
:1046A0006E746572206E6F7A7A6C65206469616DD4
:1046B0006574657220646966666572732066726FE0
:1046C0006D2074686520472D636F64652E20436FED
:1046D0006E74696E75653F00DB0052656172207310
:1046E000696465205B756D5D00600046726F6E7475
:1046F00020736964655B756D5D00E40052696768ED
:104700007420736964655B756D5D0080004C65663F
:10471000742073696465205B756D5D00F2005365FC
:10472000742074656D70657261747572653A000EFF
:104730000154656D70657261747572652063616C9A
:104740006962726174696F6E206661696C6564008C
:104750000F0154656D7065726174757265206361D7
:104760006C6962726174696F6E2069732066696E2C
:10477000697368656420616E64206163746976653D
:104780002E2054656D702E2063616C6962726174B5
:10479000696F6E2063616E20626520646973616277
:1047A0006C656420696E206D656E75205365747448
:1047B000696E67732D3E54656D702E2063616C2E9B
:1047C00000510046696C2E2073656E736F72004A4B
:1047D00000457874727564657200A5004D6F76654A
:1047E000205A00A4004D6F7665205900A3004D6F3C
:1047F0007665205800060043726173682064657412
:10480000656374696F6E2063616E0A6265207475FA
:10481000726E6564206F6E206F6E6C7920696E0A0F
:104820004E6F726D616C206D6F64650007005741BB
:10483000524E494E473A0A43726173682064657468
:10484000656374696F6E0A64697361626C65642084
:10485000696E0A537465616C7468206D6F646500DD
:1048600011004175746F6C6F6164696E67206669D1
:104870006C616D656E7420617661696C61626C65F6
:10488000206F6E6C79207768656E2066696C616D4B
:10489000656E742073656E736F7220697320747512
:1048A000726E6564206F6E2E2E2E004500455252AA
:1048B0004F523A2046696C616D656E742073656E67
:1048C000736F72206973206E6F7420726573706FDE
:1048D0006E64696E672C20706C6561736520636817
:1048E00065636B20636F6E6E656374696F6E2E0017
:1048F00048014D6F6465206368616E676520696E6D
:104900002070726F67726573732E2E2E002E004317
:104910006F70792073656C6563746564206C616E7B
:1049200067756167653F00EA0053656C65637420D5
:104930006C616E6775616765003600436F6D6D75FC
:104940006E697479206D61646500230043616C6950
:10495000627261746500FFFF536865657420252EDF
:1049600037730A5A206F66667365743A20252B31B7
:104970002E3366206D6D0A2563436F6E74696E7504
:10498000650A256353746172742066726F6D207AB4
:1049900065726F00DA00506C65617365206C6F6141
:1049A000642066696C616D656E74206669727374EB
:1049B0002E000A0153656C6563742066696C616D35
:1049C000656E743A00730046696C616D656E7400C3
:1049D00024003E43616E63656C00E60052756E6EA6
:1049E000696E672057697A6172642077696C6C2000
:1049F00064656C6574652063757272656E7420639E
:104A0000616C6962726174696F6E20726573756C36
:104A1000747320616E642073746172742066726FA7
:104A20006D2074686520626567696E6E696E672EB9
:104A300020436F6E74696E75653F00C900507265E2
:104A400068656174696E67206E6F7A7A6C652E2076
:104A5000506C6561736520776169742E0086004C27
:104A60006F6164696E672066696C616D656E740064
:104A7000D800506C6561736520696E73657274202F
:104A800066696C616D656E7420696E746F20746800
:104A9000652065787472756465722C207468656E23
:104AA00020707265737320746865206B6E6F62206E
:104AB000746F206C6F61642069742E00D900506C93
:104AC0006561736520696E736572742066696C61D7
:104AD0006D656E7420696E746F20746865206669F8
:104AE0007273742074756265206F66207468652027
:104AF0004D4D552C207468656E207072657373205F
:104B0000746865206B6E6F6220746F206C6F6164D7
:104B10002069742E003901546865207072696E74C2
:104B200065722077696C6C20737461727420707286
:104B3000696E74696E672061207A69672D7A616792
:104B4000206C696E652E20526F74617465207468E4
:104B500065206B6E6F6220756E74696C20796F755D
:104B600020726561636820746865206F7074696D78
:104B7000616C206865696768742E20436865636BA3
:104B80002074686520706963747572657320696E3E
:104B9000207468652068616E64626F6F6B202843C3
:104BA000616C6962726174696F6E206368617074B0
:104BB0006572292E000C0153656C65637420746561
:104BC0006D706572617475726520776869636820BD
:104BD0006D61746368657320796F7572206D61749F
:104BE000657269616C2E00300043686F6F736520D9
:104BF000612066696C616D656E7420666F722074E9
:104C00006865204669727374204C6179657220432F
:104C1000616C6962726174696F6E20616E64207389
:104C2000656C65637420697420696E207468652002
:104C30006F6E2D73637265656E206D656E752E00E7
:104C4000AD004E6F7720492077696C6C2063616CF2
:104C50006962726174652064697374616E63652052
:104C60006265747765656E20746970206F66207464
:104C70006865206E6F7A7A6C6520616E6420686565
:104C8000617462656420737572666163652E002CC1
:104C900001596F752063616E20616C7761797320B3
:104CA000726573756D65207468652057697A6172E5
:104CB000642066726F6D2043616C69627261746911
:104CC0006F6E202D3E2057697A6172642E00BC0001
:104CD000506C6561736520636865636B206F7572E6
:104CE0002068616E64626F6F6B20616E642066691C
:104CF00078207468652070726F626C656D2E205428
:104D000068656E20726573756D65207468652057DF
:104D1000697A617264206279207265626F6F74696A
:104D20006E6720746865207072696E7465722E00FB
:104D30000A00416C6C20697320646F6E652E2048F8
:104D400061707079207072696E74696E6721007C81
:104D500000496620796F752068617665206164641A
:104D60006974696F6E616C20737465656C2073681B
:104D7000656574732C2063616C696272617465206F
:104D80007468656972207072657365747320696EEA
:104D90002053657474696E6773202D204857205323
:104DA00065747570202D20537465656C207368657B
:104DB0006574732E00B900506C6561736520636C77
:104DC00065616E206865617462656420616E64204F
:104DD0007468656E20707265737320746865206BEB
:104DE0006E6F622E003A00446F20796F75207761F4
:104DF0006E7420746F20726570656174206C6173CD
:104E000074207374657020746F20726561646A75B4
:104E100073742064697374616E636520626574776E
:104E200065656E206E6F7A7A6C6520616E642068AD
:104E30006561746265643F00F10053656C6563747D
:104E4000206E6F7A7A6C6520707265686561742077
:104E500074656D70657261747572652077686963D9
:104E600068206D61746368657320796F7572206D59
:104E70006174657269616C2E0078004973206669FF
:104E80006C616D656E74206C6F616465643F00AE2B
:104E9000004E6F7720492077696C6C2070726568CE
:104EA000656174206E6F7A7A6C6520666F7220502F
:104EB0004C412E007500492077696C6C2072756E2C
:104EC000207A2063616C6962726174696F6E206E12
:104ED0006F772E00B1004E6F772072656D6F76652B
:104EE000207468652074657374207072696E742014
:104EF00066726F6D20737465656C20736865657488
:104F00002E00C600506C656173652072656D6F760A
:104F100065207368697070696E672068656C70657C
:104F200072732066697273742E0074004920776969
:104F30006C6C2072756E2078797A2063616C69627E
:104F4000726174696F6E206E6F772E2049742077BE
:104F5000696C6C2074616B6520617070726F782E63
:104F6000203132206D696E732E005C0046697273C9
:104F7000742C20492077696C6C2072756E207468DF
:104F8000652073656C667465737420746F20636844
:104F900065636B206D6F737420636F6D6D6F6E2032
:104FA000617373656D626C792070726F626C656D90
:104FB000732E00660048692C204920616D20796FAE
:104FC0007572204F726967696E616C2050727573DB
:104FD00061206933207072696E7465722E20576F7C
:104FE000756C6420796F75206C696B65206D652028
:104FF000746F20677569646520796F7520746872B5
:105000006F756768207468652073657475702070AB
:10501000726F636573733F007B0048692C204920E1
:10502000616D20796F7572204F726967696E616C6E
:10503000205072757361206933207072696E7465D7
:10504000722E20492077696C6C2067756964652031
:10505000796F75207468726F756768206120736856
:105060006F72742073657475702070726F636573EE
:10507000732C20696E2077686963682074686520E6
:105080005A2D617869732077696C6C2062652063A2
:10509000616C696272617465642E205468656E2C5F
:1050A00020796F752077696C6C206265207265616C
:1050B000647920746F207072696E742E000400751C
:1050C0006E6B6E6F776E20737461746500020020E2
:1050D000302E34206F72206E6577657200000020DC
:1050E000302E33206F72206F6C646572000D015496
:1050F000656D702E2063616C6962726174696F6E98
:1051000000E00052657365742058595A2063616C41
:105110006962722E00B6005049442063616C696276
:10512000726174696F6E001800426564206C657668
:10513000656C20636F7272656374008F004D6573D8
:105140006820426564204C6576656C696E67002254
:105150000043616C696272617465205A00210043EA
:10516000616C6962726174652058595A00ED005390
:10517000656C667465737400190042656C74207404
:1051800065737400280157697A6172640034014CB8
:105190006F616420616C6C00C000506C6561736568
:1051A0002070756C6C206F75742066696C616D651C
:1051B0006E7420696D6D6564696174656C79001B3E
:1051C00001556E6C6F6164696E672066696C616D14
:1051D000656E7400E1005265736574005601526596
:1051E0006E616D65005B004669727374206C617955
:1051F00065722063616C2E00570153656C656374A2
:10520000005B01537465656C207368656574730099
:105210000801537570706F7274004B004661696CC1
:10522000207374617473204D4D55004D00466169C3
:105230006C20737461747300050153746174697335
:105240007469637300290043616C696272617469F7
:105250006F6E0010004175746F4C6F616420666959
:105260006C616D656E740042004375742066696CF4
:10527000616D656E74003C00456A65637420666903
:105280006C616D656E74001A01556E6C6F616420FF
:1052900066696C616D656E740089004C6F61642095
:1052A000746F206E6F7A7A6C650084004C6F616455
:1052B0002066696C616D656E7400A7004E6F2053A7
:1052C00044206361726400D2005072696E7420667B
:1052D000726F6D20534400E200526573756D652056
:1052E0007072696E7400B3005061757365207072DE
:1052F000696E7400C80050726568656174001601BB
:1053000054756E650082004C6976652061646A752B
:105310007374205A007600496E666F20736372655D
:10532000656E003B00452D636F72726563743A00D1
:105330005C015A2D636F72726563743A003B0159C8
:105340002D636F72726563743A003001582D636F7C
:1053500072726563743A0043004375747465720039
:1053600049014D6F64656C00410153747269637447
:105370000042015761726E003F01436865636B73C1
:10538000004A014E6F7A7A6C6520642E00F7004E59
:105390006F6E6500FA00416C70686162657400F6BA
:1053A00000536F727400F80054696D6500E7005394
:1053B00044206361726400EA0053656C6563742085
:1053C0006C616E677561676500E500525069207019
:1053D0006F7274000B0154656D702E2063616C2E2A
:1053E0000081004C696E2E20636F72726563746970
:1053F0006F6E0043014857205365747570004C0070
:10540000462E206175746F6C6F61640037004469CB
:105410007361626C6520737465707065727300A24D
:10542000004D6F7665206178697300110154656DD8
:105430007065726174757265001901746F20756E04
:105440006C6F61642066696C616D656E7400180133
:10545000746F206C6F61642066696C616D656E7439
:1054600000D300507265737320746865206B6E6F93
:105470006200510150726568656174696E672074DD
:105480006F206375740052015072656865617469BC
:105490006E6720746F20656A65637400D000507277
:1054A0006568656174696E6720746F20756E6C6FD6
:1054B000616400CF0050726568656174696E672031
:1054C000746F206C6F6164002D00436F6F6C646FAC
:1054D000776E00C7005072656865617420746865F6
:1054E000206E6F7A7A6C65210047004552524F5208
:1054F0003A00530046696C616D656E74206578747E
:10550000727564696E672026207769746820636FFE
:10551000727265637420636F6C6F723F001200419A
:1055200075746F6C6F6164696E672066696C616D1C
:10553000656E74206973206163746976652C206AD6
:1055400075737420707265737320746865206B6E58
:105550006F6220616E6420696E7365727420666983
:105560006C616D656E742E2E2E00560046696C615E
:105570006D656E7420757365640057005072696EB6
:10558000742074696D65001401546F74616C206639
:10559000696C616D656E74001501546F74616C20E7
:1055A0007072696E742074696D65003801592064E9
:1055B000697374616E63652066726F6D206D696ECC
:1055C000007F004C65667400E800526967687400EB
:1055D00092004D6561737572656420736B65770029
:1055E000FD00536C6967687420736B657700F90080
:1055F00053657665726520736B65770005005B30D7
:105600003B305D20706F696E74206F6666736574E1
:1056100000080041646A757374696E67205A3A0025
:105620008A004D313137204669727374206C61797C
:1056300065722063616C2E00B5005049442063619F
:105640006C2E2066696E697368656400B400504909
:10565000442063616C2E00D4005072696E74207017
:10566000617573656400D7005072696E742046419D
:105670004E00B2004E6F7A7A6C652046414E009320
:10568000004D4D55206661696C730095004D4D5578
:10569000206C6F6164206661696C73009C004D4DE5
:1056A0005520706F776572206661696C7300170111
:1056B000546F74616C206661696C75726573007AF1
:1056C000004C617374207072696E74206661696C3D
:1056D0007572657300CD00506F77657220666169E1
:1056E0006C7572657300520046696C2E2072756E7F
:1056F0006F7574730033004372617368001C01544A
:105700006F74616C007D004C617374207072696EFF
:1057100074000B00416D6269656E7400FFFF447593
:105720006D70206D656D6F7279001E01566F6C741F
:105730006167657300120154656D706572617475FF
:10574000726573001E0042656C7420737461747519
:105750007300580153656E736F7220696E666F0037
:105760004900457874727564657220696E666F00D1
:10577000290158595A2063616C2E2064657461694F
:105780006C73001F01756E6B6E6F776E00A0004D1D
:105790004D553220636F6E6E65637465640035002D
:1057A000446174653A0096004D4D55204F4B2E20B4
:1057B000526573756D696E672E2E2E0090004D4DEB
:1057C00055204F4B2E20526573756D696E672070A2
:1057D0006F736974696F6E2E2E2E0091004D4D55BA
:1057E000204F4B2E20526573756D696E672074656E
:1057F0006D70657261747572652E2E2E005D0046A7
:1058000069782074686520697373756520616E64BA
:10581000207468656E20707265737320627574748D
:105820006F6E206F6E204D4D5520756E69742E0081
:10583000D500507265737320746865206B6E6F625B
:1058400020746F20726573756D65206E6F7A7A6C47
:10585000652074656D70657261747572652E009B4C
:10586000004D4D55206E656564732075736572201B
:10587000617474656E74696F6E2E004400437574B4
:1058800074696E672066696C616D656E7400C10035
:10589000506C656173652072656D6F766520666911
:1058A0006C616D656E7420616E64207468656E2035
:1058B000707265737320746865206B6E6F622E0062
:1058C0003D00456A656374696E672066696C616D49
:1058D000656E740094004D4D55206C6F61642066B8
:1058E00061696C656400070153544F505045442E64
:1058F00000630048656174696E6720646973616262
:105900006C656420627920736166657479207469BE
:105910006D65722E00010046532076302E33206FC5
:1059200072206F6C64657200030046532076302E3F
:1059300034206F72206E65776572000001536F6DC1
:10594000652070726F626C656D20656E636F756E39
:1059500074657265642C205A2D6C6576656C696E71
:105960006720656E666F72636564202E2E2E005967
:10597000015368656574002B0159657300A9004ED9
:105980006F00AC004E6F74207370696E6E696E6745
:105990000003015370696E6E696E67004F004661C7
:1059A0006E207465737400EF0053656C66746573E4
:1059B00074206661696C65640055012573206C650F
:1059C00076656C2065787065637465640040014697
:1059D000616C73652074726967676572696E6700D0
:1059E000550046696C616D656E742073656E736FEA
:1059F000720009015377617070656400610046723E
:105A00006F6E742F6C6566742066616E730014008F
:105A10004178697300130041786973206C656E6783
:105A200074680088004C6F6F73652070756C6C65CE
:105A300079007E004C65667420686F74656E642022
:105A400066616E3F005F0046726F6E74207072690F
:105A50006E742066616E3F003E00456E6473746F25
:105A600070206E6F7420686974003F00456E647327
:105A7000746F7000A1004D6F746F72004000456E2E
:105A80006473746F7073002701576972696E6720C1
:105A90006572726F720015004265642F486561740B
:105AA000657200AA004E6F7420636F6E6E6563743A
:105AB00065640062004865617465722F54686572A0
:105AC0006D6973746F7200BB00506C656173652003
:105AD000636865636B3A00EE0053656C66746573CA
:105AE00074206572726F72210064756D7020636C32
:105AF00065617265640A006E6F2064756D70206167
:105B00007661696C61626C650A00443231202D2037
:105B1000726561642063726173682064756D700AD8
:105B2000006E6F2064756D7020617661696C6162D2
:105B30006C650A0064756D7020636F6D706C6574C0
:105B4000656420696E20256C756D730A0058464C9B
:105B500041534800454550524F4D005352414D006E
:105B6000442D31202D20456E646C657373206C6F5D
:105B70006F700A005344207072696E74696E6720FA
:105B80006279746520004163746976652045787494
:105B900072756465723A2000496E76616C696420A2
:105BA0006578747275646572005A204F6666736515
:105BB0007400556E6B6E6F776E20636F6D6D616EE6
:105BC000643A2022004D32303020496E76616C6993
:105BD0006420657874727564657220007A5F6D6107
:105BE000783A20007A5F6D696E3A2000795F6D61C6
:105BF000783A2000795F6D696E3A2000785F6D61B8
:105C0000783A20006F70656E0054524947474552FC
:105C1000454400785F6D696E3A20005265706F727E
:105C200074696E6720656E6473746F70207374613D
:105C30007475730053494C454E54004E4F524D41BC
:105C40004C002553204D4F44453A20506572636502
:105C50006E7420646F6E653A20256868643B20701E
:105C600072696E742074696D652072656D61696E0C
:105C7000696E6720696E206D696E733A2025643BFA
:105C8000204368616E676520696E206D696E733AA6
:105C90002025640A00456E642066696C65206C6985
:105CA000737400426567696E2066696C65206C6973
:105CB000737400556E6B6E6F776E20256320636F73
:105CC00064653A2025730A000A50494E4441207405
:105CD000656D70657261747572653A20252E316646
:105CE000205A20736869667420286D6D293A202532
:105CF0002E3366000A537465703A2025642F360AE5
