:100000000C94A14E0C94D24E0C94D24E0C94D24E21
:100010000C94D24E0D944A410C94D24E0C94D24E74
:100020000D94D8400C94D24E0D94362D0C94D24E93
:100030000C94B6DB0C94D24E0C94E66A0C94EFE967
:100040000C94D24E0C9496700C94D24E0C94D24ECA
:100050000C94D24E0C94D24E0C94D24E0D94692C2A
:100060000C94D24E0C943BE30C94D24E0C94D24E92
:100070000C94D24E0C94D24E0C94D24E0C94D24E80
:100080000C94D24E0C94D24E0C94D24E0C94D24E70
:100090000C94F7E20C94D24E0C94D24E0C94D24EA7
:1000A0000C94D24E0C94D24E0C9433E90C94D24E54
:1000B0000C94D24E0C9415E90C94D24E0C94D24E62
:1000C0000C94D24E0C94D24E0C94D24E0C949CE8CC
:1000D0000C94D24E0C94D24E0C94D24E0C94D24E20
:1000E0000C94D24E00000000000000000000000050
:1000F0000000000000000000000000000000000000
:10010000A55AB44B54285F01AC386C6E5F0133378D
:10011000CE02DC02EC02FC020E031E033003640379
:100120009A03AA03B803CF03DA03DB03EB030F043C
:100130001C042F047F04C904D204D504E404EE0493
:10014000FB040E0517056A0571057C0580058C0505
:10015000AD05BE05CD05DA05E505F0055C066806CA
:10016000D206E306EE06FC060D071E072707440726
:100170004E07AB07BF07E507E607EE07F5070608DA
:100180001208A308A90807091409230936094B090D
:1001900054095E098C0999099D09AD09EB09EC091F
:1001A000F209F309F409F509000A0D0A1E0A290AE1
:1001B000320A3D0A3E0A4A0A730A850A940AA70AC5
:1001C000B20ABB0ADE0AF10A020B660BAB0BB30BD9
:1001D000C20BD10BE10BF20B220C320C3B0C950C39
:1001E000A50CB60CC10CD00CE40CF60C090D190DC5
:1001F000290D390D480D570D580D900DAB0DB70D4C
:10020000C80DDD0DFC0D100EAA0E140F220F350FB8
:100210003B0F4A0F5D0F6E0FB60FC50FD10FE00FEA
:10022000E90FFA0F09101F10291036104110701035
:1002300082109F10C010CB10D410E610F3100811DC
:100240000E113911411146116A117A117F11801175
:100250008B119A119B11AA11B611C211CE11DD1189
:10026000EB11EF11F31102122612331263128712EF
:100270008C12E1120B13141323132C13411350137C
:100280005F13F4131C145F146F14E3141115281575
:1002900053157715B715D915FB15351645166F1675
:1002A00083169116B216C71605170B171B172C17B6
:1002B0003E17511752175F176C177B17B7171E1889
:1002C0001F186818BF18DB18EA181F196D197E1956
:1002D000C919DB19DC19EC19FC190B1A0C1A741A60
:1002E0007D1A841A9E1AA81AB51AC41ACD1ADC1AD5
:1002F000ED1A421B981BA91BB61BC41B201C261CF5
:100300002B1C301C3B1C431C561C5B1C691C701CAA
:10031000771CB31CBB1CC41CCB1C1A1D271D351D10
:100320003E1D3F1D491D581D631D9E1DAD1DCB1D4E
:10033000251E551E611E6E1EF41E001F111F201F5C
:100340002E1F431F551F641F771F7E1F911F9A1F6B
:10035000A31FB81FDC1FFA1F43206C209120B5207B
:10036000C620CD20DE201421172153219B21DF211F
:10037000E821F52134227A22C322CD220023422310
:1003800087239923402484249124952499249F240D
:10039000A024B124B824C124D124DF24E0240525DD
:1003A0000D25252526252E256125C025F8255C2629
:1003B0009426F42607271B276527E527F82700281A
:1003C0000A280B2816281E282A28372842282030D9
:1003D0002E33206F66206F7564657200465320309F
:1003E0002E33206F66206F756465720020302E34C6
:1003F000206F66206E696575776572004653203000
:100400002E34206F66206E696575776572005374AF
:1004100061747573206F6E62656B656E64005B302E
:100420003B305D2070756E74206F66667365740076
:1004300043726173686465746563746965206B6198
:100440006E0A616C6C65656E20696E206E6F726DF0
:1004500061616C0A6765627275696B7420776F728F
:1004600064656E005741524E494E473A0A437261E5
:10047000736864657465637469650A756974676532
:10048000736368616B656C6420696E0A537465619F
:100490006C7468207374616E64005A2069732069FB
:1004A0006E67657374656C643A00416C6C656D6170
:1004B000616C20676F6564004B6C6161722E20482F
:1004C00061707079207072696E74696E6721004B7B
:1004D000616D657274656D702E0000656E206472CA
:1004E000756B206F70206B6E6F70005A696A6E209A
:1004F0006265696465205A20776167656E2068656A
:10050000656C656D61616C20626F76656E3F00534E
:1005100074617274706F7369746965004175746F8A
:100520006C6164656E2066696C616D656E74004116
:1005300075746F2E206C6164656E2076616E206626
:10054000696C2E20697320656E6B656C2062657323
:100550006368696B626161722077616E6E65657256
:100560002066696C2E73656E736F722069732069E3
:100570006E6765736368616B656C642E2E2E004137
:1005800075746F6D617469736368206C6164656E06
:100590002076616E20666C616D656E7420697320D3
:1005A0006163746965662C206472756B20646520D4
:1005B0006B6E6F7020656E206C6161642066696C83
:1005C000616D656E742E2E2E0041736C656E6774BE
:1005D00065004173004265642F5665727761726DE4
:1005E000696E6700426564206B6C616172004265F0
:1005F00064206F707761726D656E00426564206E75
:10060000697665617520636F727265637400526903
:10061000656D7465737400426564206C6576656C05
:10062000696E67206D69736C756B742E2053656EEF
:10063000736F72206865656674206E6965742067E3
:10064000656163746976656572642E205075696EA4
:10065000206F7020747569743F205761636874203F
:100660006F702072657365742E0048656C646572E6
:100670000048656C64657268656964004265640081
:100680005269656D20737461747573005374726F71
:100690006F6D73746F72696E672E205072696E741D
:1006A000206865727374656C6C656E3F004B616C9D
:1006B0006962726572656E207374617274004B6159
:1006C0006C696272617469652058595A004B616C9B
:1006D00069627261746965205A004B616C6962726B
:1006E0006572656E003E416E6E756C6572656E007A
:1006F0004B616C6962726572656E2076616E20581E
:10070000595A2E204472616169206465206B6E6FB6
:1007100070206F6D206465205A2D776167656E20AB
:100720006F6D686F6F67207465206761616E2074FC
:100730006F74206865742065696E64652073746FDA
:1007400070706572732E204472756B206B6E6F70C3
:1007500020616C73206B6C6161722E004B616C695F
:100760006272657265205A004B616C6962726572D3
:10077000656E2076616E205A2E2044726161692078
:100780006465206B6E6F70206F6D206465205A2D3C
:10079000776167656E206F6D686F6F672074652085
:1007A0006761616E20746F74206865742065696E7E
:1007B00064652073746F70706572732E2044727557
:1007C0006B206B6E6F7020616C73206B6C6161725B
:1007D0002E004B616C69627261746965206B6C619B
:1007E0006172004B616C69627261746965005344A7
:1007F0002076657277696A64657264004265737415
:10080000616E6420636F6E74726F6C65004B6C6513
:100810007572206E696574206A756973740041662B
:100820006B6F656C656E00476573656C65637465B9
:1008300065726465207461616C206B6F70696572AC
:10084000656E3F0043726173686465742E004B6986
:1008500065732065656E2066696C616D656E7420D8
:10086000766F6F72206465206B616C69627261746F
:1008700069652076616E20646520656572737465B4
:10088000206C61616720656E2073656C65637465BB
:1008900065722064657A6520696E206865742073CE
:1008A000636865726D6D656E752E00437261736865
:1008B000206765646574656374656572642E0043C2
:1008C00072617368206765646574656374656572D9
:1008D000642E205072696E7420766F6F727A657420
:1008E00074656E3F00004163747565656C0044611A
:1008F00074756D3A0056616E20646520636F6D6D8E
:10090000756E697479004D6F746F72656E207569CC
:10091000740041667374616E642074757373656EE0
:10092000207469702076616E206465207475697426
:1009300020656E20686574207072696E74206F7017
:10094000706572766C616B206973206E6F67206EC4
:10095000696574207661737467657374656C642E61
:1009600020566F6C672064652068616E646C6569F1
:1009700064696E672C2046697273742073746570A5
:10098000732C2073656374696520466972737420E3
:100990006C617965722063616C6962726174696F00
:1009A0006E2E00446F6F722E0057696C7420752094
:1009B0006465206C61617473746520737461702068
:1009C00068657268616C656E206F6D20646520617A
:1009D000667374616E642074757373656E206465EC
:1009E000207475697420656E2064652062656420DA
:1009F0006F706E6965757720696E207465207374F9
:100A0000656C6C656E3F00452D636F727265637433
:100A100069653A0046696C2E207569747765727055
:100A2000656E0046696C2E20776F7264206F6E745D
:100A30006C6164656E00456E6473746F70206E69DE
:100A400065742067657261616B740045696E6473DB
:100A5000746F700045696E6473746F707300466FD5
:100A60007574202D206865742073746174697363D4
:100A7000686520676568657567656E206973206FB6
:100A8000766572736368726576656E0046696C2E72
:100A9000206B6E697070656E004D6573004B6E69FA
:100AA0007070652066696C616D656E7400464F55A7
:100AB000543A2046696C616D656E7473656E736F30
:100AC00072207265616765657274206E6965742C49
:100AD00020636F6E74726F6C65657220646520763A
:100AE000657262696E64696E672E0000464F5554E8
:100AF0003A000000004D4D552D466F7574656E002F
:100B0000462E206175746F6C6164656E00466F756A
:100B1000747374617469737469656B656E004661A2
:100B20006E20736E656C682E0046616E207465736E
:100B3000740046616E7320636865636B00004669EC
:100B40006C2E20666F7574656E0046696C616D650C
:100B50006E742065787472756465657274206D6555
:100B600074206465206A7569737465206B6C6575A3
:100B7000723F0046696C2E206E6965742067656C53
:100B80006164656E0046696C616D656E7473656E57
:100B9000736F72004765627275696B746520666970
:100BA0006C616D656E74005072696E742074696A50
:100BB0006400465320616374696500426573746123
:100BC0006E64206F6E766F6C6C656469672E20545E
:100BD0006F636820646F6F726761616E3F00566F6C
:100BE0006F727467616E672061667765726B656EA0
:100BF00000456572737465206C616167206B616C80
:100C00002E0054656E20656572737465207A756C6C
:100C10006C656E207765206465207A656C66746506
:100C2000737420756974766F6572656E206F6D20C0
:100C30006465206D6565737420766F6F726B6F6D80
:100C4000656E6465206D6F6E7461676570726F624A
:100C50006C656D656E20746520636F6E74726F6C69
:100C60006572656E2E004C6F73206865742070721B
:100C70006F626C65656D206F7020656E20647275A3
:100C80006B20766572766F6C67656E73206F70206F
:100C90006465206B6E6F70206F70206465204D4D11
:100CA000552D65656E686569642E005374726F6DAD
:100CB000656E00566F6F727A696A64652066616E50
:100CC0003F00566F6F726B616E7420205B756D5DB7
:100CD0000046616E7320766F6F722F6C696E6B7356
:100CE000005665727761726D65722F546865726D1A
:100CF0002E005665727761726D696E672075697432
:100D00006765736368616B656C6420646F6F7220E4
:100D10007665696C6967686569647374696D657225
:100D20002E004F707761726D656E206B6C61617221
:100D30002E004F707761726D656E0048616C6C6F4C
:100D40002C20696B2062656E207577204F72696771
:100D5000696E616C20507275736120693320707206
:100D6000696E7465722E205A756C6C656E2077659D
:100D700020626567696E6E656E206D6574206865BA
:100D80007420696E7374616C6C6174696570726FE4
:100D90006365733F0057697373656C2066696C61A6
:100DA0006D656E740057697373656C206765736C4D
:100DB00061616764210057697373656C206F6B3FD5
:100DC00000436F6E74726F6C6565722062656400BB
:100DD000436F6E74726F6C65657220656E647374B8
:100DE0006F707300436F6E74726F6C65657220680C
:100DF0006F74656E6400436F6E74726F6C656572BC
:100E00002073656E736F727300436F6E74726F6CD4
:100E1000656572205820617300436F6E74726F6C49
:100E2000656572205920617300436F6E74726F6C38
:100E3000656572205A206173004B6965732065787F
:100E40007472756465723A004B6965732066696CEB
:100E5000616D656E743A0000426567696E206E755B
:100E6000206D65742078797A2D6B616C696272618E
:100E70007469652E20486574206475757274206FDE
:100E80006E676576656572203132206D696E2E0061
:100E9000426567696E206E75206D6574207A2D6BD2
:100EA000616C696272617469652E00496E666F20BB
:100EB00073636865726D00566F65722066696C6158
:100EC0006D656E7420696E0049732066696C616D92
:100ED000656E742067656C6164656E3F004C696780
:100EE0007420646520737461616C706C616174203E
:100EF0006F7020686574206265643F004C616174A6
:100F0000737465207072696E74666F7574656E00B7
:100F100048616C6C6F2C20696B2062656E206A657D
:100F2000206F726967696E656C65205072757361B8
:100F30002069332D7072696E7465722E20496B20A2
:100F40007A616C206A6520646F6F722065656E201F
:100F5000736E656C20696E7374656C6C696E677313
:100F600070726F636573206C656964656E2064617F
:100F700074206465205A2D6173207A616C206B6146
:100F80006C6962726572656E2E2044616E206265C6
:100F90006E206A65206B6C616172206F6D207465D4
:100FA000207072696E74656E2E00416C732075201E
:100FB000657874726120737461616C706C617465C2
:100FC0006E20686562742C206B616C696272656565
:100FD000727420752068756E20766F6F72696E73FB
:100FE00074656C6C696E67656E20696E20496E73FE
:100FF00074656C6C696E67656E202D2048572053B0
:1010000065747570202D20537461616C706C61740F
:10101000656E2E004C616174737465207072696E28
:1010200074004C696E6B657220686F74656E642025
:1010300066616E3F004C696E6B73004C696E6B6548
:10104000726B616E745B756D5D004C696E65616994
:10105000726520636F72726563746965004C6976AE
:1010600065205A2061616E70617373656E00537400
:1010700065656B20612E752E622E2066696C616D30
:10108000656E7420286D616172206E696574206CD4
:101090006164656E2920696E2064652065787472CC
:1010A0007564657220656E206472756B206F7020A8
:1010B0006B6E6F702E0046696C616D656E74206C8E
:1010C0006164656E004C6164656E206B6C65757261
:1010D000004C6164656E2066696C616D656E7400BC
:1010E0004974657261746965004C6F737365207231
:1010F00069656D736368696A6600546F74207475FE
:101100006974206C6164656E004D3131372045652E
:1011100072737465206C616167206B616C2E00488E
:101120006F6F66646D656E750048656C64657220EE
:1011300077616172640044696D20776161726465F2
:10114000005265666572656E74696520686F6F67C9
:1011500074652076616E20686574206B616C6962CD
:10116000726174696570756E74206D6574656E006A
:101170004D65736820626564204C6576656C696EA8
:1011800067004D4D55204F4B2E20506F7369746989
:10119000652068657276617474656E2E2E2E004D22
:1011A0004D55204F4B2E2054656D706572617475DE
:1011B00075722068657276617474656E2E2E2E00CD
:1011C00053636865656668656964004D4D552066C2
:1011D0006F7574004D4D55206C6164656E206D69AE
:1011E000736C756B74004D4D55206C616164666F56
:1011F0007574004D4D55204F4B2E20486572766119
:101200007474656E2E2E2E005374616E64004D4B07
:10121000332D6669726D776172652062696A204D4F
:101220004B33532D7072696E746572206765646507
:101230007465637465657264004E6F726D61616C94
:10124000005374696C004D4D5520686565667420C7
:101250006765627275696B65727361616E64616303
:101260006874206E6F6469672E004D4D552073744D
:10127000726F6F6D73746F722E005374696C00001F
:10128000486F6F67207665726D2E004D4D55322088
:10129000766572626F6E64656E00004173207665DC
:1012A00072706C61617473656E00566572706C610A
:1012B000617473205800566572706C61617473209C
:1012C0005900566572706C61617473205A004765ED
:1012D000656E206265776567696E672E0047656594
:1012E0006E205344206B61617274004E2F56004E85
:1012F0006565004E69657420766572626F6E64651F
:101300006E004E6965757765206669726D776172EA
:101310006520766572736965206265736368696BC1
:10132000626161723A0042657765656774206E6933
:10133000657400426567696E206D6574206B616C31
:10134000696272617469652074757373656E206477
:1013500065207475697420656E2068657420626507
:10136000642E004F707761726D656E2076616E201D
:101370006465207475697420766F6F7220504C41DB
:1013800020766F6F722E0054756974004F75646516
:1013900020696E7374656C6C696E67656E20676535
:1013A000766F6E64656E2E205374616E6461617237
:1013B00064205049442C20452D737465707320655A
:1013C00074632E20696E7374656C6C696E67656EEC
:1013D00020776F7264656E2067656C6164656E2E40
:1013E0000056657277696A646572206E752064655F
:1013F00020746573747072696E742076616E2073E8
:101400007461616C706C6161742E00547569742034
:1014100066616E005072696E74207061757A6572D3
:10142000656E00504944206B616C2E005049442089
:101430006B616C69627261746965206B6C61617269
:1014400000504944206B616C696272617469650087
:1014500050494E4441206F707761726D656E004C4B
:1014600065672065656E2076656C207061706965C2
:1014700072206F6E646572206465207475697420D3
:1014800074696A64656E73206465206B616C69625F
:1014900072617469652076616E206465206565728D
:1014A00073746520342070756E74656E2E20416CE7
:1014B0007320646520747569742068657420706198
:1014C0007069657220626577656567742C20646554
:1014D000207072696E746572206F6E6D69646465E8
:1014E0006C6C696A6B20756974736368616B656C99
:1014F000656E2E004D61616B2068657420626564C5
:10150000207363686F6F6E20656E206472756B2048
:101510006F70206465206B6E6F702E005265696E6F
:101520006967206465207475697420766F6F722016
:101530006465206B616C696272617469652E204418
:1015400072756B206F70206465206B6E6F702077F2
:10155000616E6E656572206765726565642E004315
:101560006F6E74726F6C656572206175623A0043CC
:101570006F6E74726F6C65657220617562206F6E3C
:10158000732068616E64626F656B20656E206C6F9E
:1015900073206865742070726F626C65656D206F72
:1015A000702E2048657276617420766572766F6C55
:1015B00067656E732064652077697A617264206460
:1015C0006F6F72206465207072696E746572206F2F
:1015D000706E6965757720746520737461727465C7
:1015E0006E2E004F70656E20726F6E6473656C2096
:1015F000656E2076657277696A6465722066696CCB
:10160000616D656E742068616E646D617469672ECA
:10161000004C656720737461616C706C616174204B
:101620006F70206265642E004472756B206F7020AD
:101630006465206B6E6F70206F6D2066696C616DE4
:10164000656E742074652076657277696A64657268
:10165000656E005472656B206F6E6D696464656CB5
:101660006C696A6B2064652066696C616D656E7477
:10167000206572756974005472656B206F6E6D69B8
:101680006464656C6C696A6B2066696C616D656E1B
:101690007420657275697420656E206472756B20A4
:1016A000766572766F6C67656E73206F7020646507
:1016B000206B6E6F702E0056657277696A64657272
:1016C00020737461616C706C6161742076616E204E
:1016D000686574206265642E00566F6572206565CA
:1016E0007273742064652058595A2D6B616C69625D
:1016F0007261746965207569742E00417562206499
:1017000065206669726D7761726520746520766503
:10171000726E69657577656E20696E207577204DEC
:101720004D55322E205761636874206F70207265AA
:101730007365742E004576656E20676564756C640C
:10174000206175620056657277696A64657220650A
:1017500065727374206465207472616E73706F7249
:101760007420626573636865726D6572732E0054D0
:1017700075697420766F6F727665727761726D65C8
:101780006E2100566F6F727665727761726D656E4D
:10179000004F707761726D656E2076616E206465B2
:1017A00020747569742E20576163687420617562B6
:1017B0002E00566F65722065656E207570677261C8
:1017C000646520756974004472756B206F702064C5
:1017D00065206B6E6F70206F6D2064652074756975
:1017E0007420766F6F7220746520766572776172EF
:1017F0006D656E20656E20646F6F72207465206762
:1018000061616E2E005061757A65005374726F6F5E
:101810006D73746F72696E67656E005072696E7475
:10182000206166676562726F6B656E004F707761ED
:10183000726D656E20696E766F6572656E004F70B1
:101840007761726D656E2075697477657270656E0B
:1018500000005072696E742076616E20534400441B
:1018600072756B206F70206B6E6F70005072696EB6
:1018700074207061757A6572656E004472756B20B4
:101880006F70206465206B6E6F70206F6D206465D3
:101890002074656D70657261747575722076616E05
:1018A000206465207475697420746520686572769B
:1018B000617474656E2E005072696E746572206971
:1018C00073206E6F67206E6965742067656B616C4D
:1018D000696272656572642E20566F6C672064655C
:1018E0002068616E646C656964696E672C20686F3E
:1018F0006F66647374756B204669727374207374B9
:101900006570732C207365637469652043616C692D
:1019100062726174696F6E20666C6F772E0000537F
:101920007465656B20612E752E622E2066696C6170
:101930006D656E7420696E206465206578747275BB
:1019400064657220656E206472756B206F70206410
:1019500065206B6E6F70206F6D20686574207465F4
:10196000206C6164656E2E00537465656B20612E7A
:10197000752E622E2066696C616D656E7420696ECD
:1019800020646520656572737465206275697320D3
:1019900076616E206465204D4D5520656E20647221
:1019A000756B206F70206465206B6E6F70206F6D9B
:1019B00020686574207465206C6164656E2E004C2F
:1019C00061616420612E752E622E206565727374CC
:1019D0002066696C616D656E742E00416368746584
:1019E000726B616E745B756D5D0056657277696AC6
:1019F0006465722065657273742068657420666919
:101A00006C616D656E7420656E2070726F626565C5
:101A10007220686574206F706E696575772E00415D
:101A200055422049522073656E736F72207665723D
:101A30002D2062696E64696E67206B6F6E74726FC1
:101A40006C6C6572656E202C2076657277696A64AD
:101A500065722066696C616D656E7420696E64697B
:101A6000656E2061616E77657A69672E00507269D4
:101A70006E74206865727374656C6C656E00566573
:101A80007277696A646572206465206F7564652089
:101A900066696C616D656E7420656E206472756B2D
:101AA000206F70206465206B6E6F70206F6D206EEC
:101AB00069657577652066696C616D656E74207403
:101AC00065206C6164656E2E0052657365742058E4
:101AD000595A206B616C6962722E00005072696EF7
:101AE000742068657276617474656E0048657276FC
:101AF000617474656E207072696E740052656368FB
:101B0000742E6B616E745B756D5D00005374617251
:101B100074656E2076616E2064652057697A617203
:101B2000642076657277696A6465727420646520E2
:101B300068756964696765206B616C69627265725A
:101B4000696E6773726573756C746174656E206518
:101B50006E20626567696E742076616E61662068CA
:101B6000657420626567696E2E20446F6F726761CD
:101B7000616E3F005344206B616172740052656373
:101B8000687473005A6F656B656E20626564206BC4
:101B9000616C6962726174696570756E74004B691D
:101BA0006573207461616C005A656C66746573744A
:101BB00020204F4B005A656C6674657374207374F3
:101BC000617274005A656C6674657374005A656C52
:101BD000667465737420666F757421005A656C664F
:101BE00074657374206D69736C756B74005A656CE1
:101BF0006674657374207A616C20776F7264656EA9
:101C0000207569746765766F657264206F6D206EEC
:101C10006175776B6575726967652073656E736F43
:101C2000726C6F7A65206175746F20706F73697460
:101C30006965207465206B616C6962726572656E9E
:101C40002E0053656C65637465657220646520764B
:101C50006F6F727665727761726D696E67737465A6
:101C60006D70657261747575722076616E20646541
:101C7000207475697420646965206F766572656586
:101C80006E6B6F6D74206D6574207577206D617457
:101C900065726961616C2E0054656D702E20696EED
:101CA0007374656C6C656E3A00496E7374656C6C28
:101CB000696E67656E00546F6F6E20656E64737435
:101CC0006F707300536F6D6D696765206265737423
:101CD000616E64656E20776F7264656E206E6965F3
:101CE00074206765736F727465657264206F6D64CC
:101CF000617420686574206D6178696D756D20610F
:101D0000616E74616C2062657374616E64656E20CF
:101D1000706572206D6170203130302069732E0043
:101D2000536F72742E004765656E0054696A6400D3
:101D30004572672073636865656600416C66616221
:101D400065740042657374616E64656E20736F72B2
:101D5000746572656E004861726400426565746AFC
:101D600065207363686565660047656C7569640026
:101D7000466F7574656E0045722069732065656EE7
:101D80002070726F626C65656D206F70676574722C
:101D90006564656E2C205A2D6B616C69627261748A
:101DA0006965206166676564776F6E67656E202E72
:101DB0002E2E0045656E6D61616C00536E656C681A
:101DC0006569640044726161697400456E207374D2
:101DD000616269656C652032312D323643206F6D4A
:101DE000676576696E677374656D70657261747529
:101DF0007572206973206E6F6469672C65656E204B
:101E000073746576696765207374616E64206973A5
:101E100020766572656973742E00537461746973FA
:101E20007469656B656E005072696E742073746FAF
:101E30007070656E00474553544F50542E00004754
:101E40006577697373656C64004B696573206669B7
:101E50006C616D656E743A0054656D706B616C6990
:101E6000622E0053656C656374656572206465203D
:101E700074656D7065726174757572206469652032
:101E80006F76657265656E6B6F6D74206D6574201D
:101E90007577206D617465726961616C2E0054659F
:101EA0006D706B616C696272617469650054656D17
:101EB00070657261747575726B616C696272617460
:101EC0006965206D69736C756B740054656D706520
:101ED0007261747575726B616C6962726174696547
:101EE000206B616E207569746765736368616B65EB
:101EF0006C6420776F7264656E20696E206865740B
:101F0000206D656E7520496E7374656C6C696E67C3
:101F1000656E2D3E2054656D706B616C69627261F7
:101F20007469652E0053656E736F72206765766500
:101F300072696669656572642C2076657277696A74
:101F4000646572206E75206865742066696C616DC9
:101F5000656E742E0054656D70657261747575726E
:101F60000054656D70657261747572656E004572BE
:101F7000206973206E6F67207374656564732065D4
:101F8000656E206E6F6F647A61616B206F6D206487
:101F900065205A2D6B616C69627261746965207588
:101FA000697420746520766F6572656E2E20566F99
:101FB0006C672064652068616E646C656964696E35
:101FC000672C20686F6F66647374756B2046697246
:101FD00073742073746570732C2073656374696FF8
:101FE0006E2043616C6962726174696F6E20666C09
:101FF0006F772E00546F7461616C2066696C2E00DF
:10200000546F7461616C207072696E7474696A6473
:102010000046696A6E61667374656D6D696E67000E
:10202000546F7461616C20666F7574656E006F6DBE
:102030002066696C616D656E74207465206C6164E6
:10204000656E006F6D2066696C2E2075697477650A
:102050007270656E0046696C2E20756974776572C2
:1020600070656E0055697477657270656E2066697B
:102070006C616D656E7400546F7461616C004765CE
:10208000627275696B742062696A207072696E741D
:10209000005370616E6E696E67006F6E62656B658E
:1020A0006E64005761636874206F702067656272A8
:1020B00075696B65722E2E005761636874656E20BA
:1020C0006F702061666B6F656C656E2076616E2047
:1020D0007475697420656E20626564005761636879
:1020E00074656E206F702061666B6F656C656E2025
:1020F00076616E2050494E444100576161727363AE
:10210000687577696E673A207A6F77656C206865C5
:1021100074207072696E7465727479706520616C78
:102120007320686574206D6F65646572626F726498
:102130007479706520697320676577696A7A696761
:10214000642E00576161727363687577696E673AD0
:102150002074797065206D6F65646572626F72645A
:1021600020676577696A7A6967642E0057616172D2
:102170007363687577696E673A207072696E74650B
:10218000727479706520676577696A7A6967642E09
:102190000049732066696C616D656E7420737563A8
:1021A0006365732D20766F6C2076657277696A643B
:1021B0006572643F0041616E736C756974696E6726
:1021C00073666F75740057697A6172640058595A62
:1021D000206B616C2E2064657461696C73005859C2
:1021E0005A2D6B616C69627261746965206D6973E7
:1021F0006C756B742E2052616164706C656567202C
:1022000064652068616E646C656964696E672061ED
:1022100075622E004A610055206B756E74206465EE
:102220002077697A61726420616C74696A642068DD
:10223000657276617474656E20766961204B616C9D
:1022400069627261746965202D3E2057697A6172F6
:10225000642E0058595A2D6B616C69627261746901
:102260006520696E206F7264652E20536368656512
:102270006668656964207A616C206175746F6D6150
:10228000746973636820776F7264656E2067656335
:102290006F72726967656572642E0058595A2D6BAA
:1022A000616C6962726174696520696E206F726425
:1022B000652E2058202F20592D617373656E207A6A
:1022C000696A6E206C69636874207363686565660B
:1022D0002E20476F65642067656461616E2100543C
:1022E000696D652D6F757400582D636F727265632B
:1022F0007469653A0058595A2D6B616C6962726154
:10230000746965206F6B2E2058202F20592D617322
:1023100073656E20737461616E206C6F6F6472659B
:102320006368742E20476566656C696369746565CA
:102330007264210058595A2D6B616C696272617424
:102340006965206E6965742067656C756B742E20F5
:10235000566F6F72737465206B616C696272617421
:10236000696570756E74656E206E6965742062654E
:102370007265696B626161722E0058595A2D6B61EA
:102380006C69627261746965206E69657420676545
:102390006C756B742E205265636874657220766F5D
:1023A0006F72206B616C6962726174696570756EC1
:1023B00074206E6965742062657265696B62616123
:1023C000722E004C61616420616C6C650058595A32
:1023D0002D6B616C69627261746965206D69736CE3
:1023E000756B742E2042656420696A6B70756E741B
:1023F000206E696574206765766F6E64656E2E0069
:1024000058595A2D6B616C69627261746965206DEF
:1024100069736C756B742E20566F6F7273746520C0
:102420006B616C6962726174696570756E74656EFA
:10243000206E6965742062657265696B62616172A4
:102440002E0058595A2D6B616C696272617469650E
:10245000206D69736C756B742E20526563687465AA
:102460007220766F6F72206B616C69627261746941
:102470006570756E74206E69657420626572656939
:102480006B626161722E00592061667374616E64C3
:102490002076616E206D696E004465207072696EF1
:1024A00074657220626567696E742065656E207A56
:1024B00069677A61676C696A6E207072696E7465AB
:1024C0006E2E2044726161692061616E2064652016
:1024D0006B6E6F7020746F74646174206A65206421
:1024E00065206F7074696D616C6520686F6F6774CB
:1024F0006520686562742062657265696B742E2060
:1025000042656B696A6B2064652061666265656C13
:1025100064696E67656E20696E2064652068616E0F
:10252000646C656964696E67202843616C696272D6
:102530006174696F6E2063686170746572292E0022
:102540005665726966696361746965206D69736C4B
:10255000756B742C2076657277696A646572206881
:1025600065742066696C616D656E7420656E20709F
:10257000726F6265657220686574206F706E696540
:1025800075772E00592D636F727265637469653AB1
:10259000005569740041616E0074657275670000D2
:1025A00056616C73652074726967676572696E67DE
:1025B00000537472696B7400576161727363682EA3
:1025C00000485720436F6E6669677572617469656C
:1025D000004D61676E65742E20636F6D702E000074
:1025E0004D4B33532D6669726D77617265206F7044
:1025F000204D4B332D7072696E746572206F6E744E
:1026000064656B74004D4D55204D6F64004D6F64D3
:10261000757377696A7A6967696E672062657A6936
:10262000672E2E2E00005475697420642E00472DED
:10263000436F646520697320766F6F722065656EE5
:1026400020616E646572206E6976656175206765CC
:10265000736C6963742E20446F6F726761616E3FA3
:1026600000472D436F646520697320766F6F722079
:1026700065656E20616E646572206E697665617550
:10268000206765736C6963742E20536C69636520E1
:10269000686574206D6F64656C206F706E69657716
:1026A00020616C736A65626C696566742E20447281
:1026B000756B206765616E6E756C656572642E0062
:1026C000472D436F646520697320766F6F722065B4
:1026D000656E20616E646572207072696E746572D9
:1026E00074797065206765736C6963742E20446F1C
:1026F0006F726761616E3F00472D436F64652069AB
:102700007320766F6F722065656E20616E646572EE
:10271000207072696E746572747970652067657374
:102720006C6963742E20536C69636520686574203E
:102730006D6F64656C206F706E69657720616C7376
:102740006A65626C696566742E204472756B2067D9
:1027500065616E6E756C656572642E00472D436F02
:10276000646520697320766F6F722065656E206ED8
:1027700069657577657265206669726D77617265E6
:10278000206765736C6963742E20446F6F72676194
:10279000616E3F00472D436F646520697320766F3B
:1027A0006F722065656E206E69657577657265204C
:1027B0006669726D77617265206765736C696374B1
:1027C0002E20557064617465206465206669726DA1
:1027D0007761726520616C736A65626C69656674A5
:1027E0002E204472756B206765616E6E756C656531
:1027F00072642E004F707761726D2E2074652073A5
:102800006E696A64656E004F707761726D2E7465D3
:102810002075697477657270656E0044652064691F
:10282000616D657465722076616E206465207475D3
:1028300069742076616E206465207072696E7465BB
:102840007220766572736368696C742076616E209D
:10285000646520472D636F64652E20446F6F726737
:1028600061616E3F004465206469616D65746572E5
:102870002076616E20646520747569742076616EBF
:10288000206465207072696E74657220766572735B
:102890006368696C742076616E20646520472D63DF
:1028A0006F64652E20436F6E74726F6C6565722065
:1028B00064652077616172646520696E20646520BB
:1028C000696E7374656C6C696E67656E2E20416607
:1028D0006472756B6B656E206765616E6E756C6595
:1028E0006572642E002573206E69766561752076A9
:1028F00065727761636874004865726E6F656D001C
:1029000053656C6563746565720000537461616C36
:10291000706C616174004173736973742E00537439
:1029200061616C706C6174656E005A2D636F7272B8
:1029300065637469653A005A2D74657374206E720C
:102940002E005072696E7465722049502D61647258
:1029500065733A0000004669726D77617265204DBB
:102960004B335320646574656374652073757220FE
:10297000696D7072696D616E7465204D4B33004DE9
:102980006F6465204D4D55004368616E67656D65E8
:102990006E74206465206D6F646520656E20636FC2
:1029A0007572732E2E2E004D6F64656C6500446940
:1029B000616D2E2062757365004C6520472D636F35
:1029C0006465206120657465207072657061726550
:1029D00020706F757220756E206E69766561752046
:1029E000646966666572656E742E20436F6E7469E5
:1029F0006E7565723F004C6520472D636F646520DE
:102A00006120657465207072657061726520706FF9
:102A1000757220756E206E697665617520646966D1
:102A2000666572656E742E20566575696C6C657A84
:102A3000206465636F75706572206C65206D6F64CE
:102A4000656C652061206E6F75766561752E204C12
:102A500027696D7072657373696F6E20612065748C
:102A60006520616E6E756C65652E004C6520472D86
:102A7000636F6465206120657465207072657061A4
:102A8000726520706F757220756E65206175747245
:102A9000652076657273696F6E206465206C2769A6
:102AA0006D7072696D616E74652E20436F6E74690E
:102AB0006E7565723F004C6520472D636F6465201D
:102AC0006120657465207072657061726520706F39
:102AD000757220756E6520617574726520766572F9
:102AE00073696F6E206465206C27696D7072696D03
:102AF000616E74652E20566575696C6C657A20640C
:102B000065636F75706572206C65206D6F64656CB0
:102B1000652061206E6F75766561752E204C276982
:102B20006D7072657373696F6E20612065746520C6
:102B3000616E6E756C65652E004C6520472D636F68
:102B400064652061206574652070726570617265CE
:102B500020706F757220756E652076657273696F6F
:102B60006E20706C757320726563656E7465206489
:102B700075206669726D776172652E20436F6E7481
:102B8000696E7565723F004C6520472D636F646503
:102B900020612065746520707265706172652070B7
:102BA0006F757220756E652076657273696F6E2021
:102BB000706C757320726563656E74652064752032
:102BC0006669726D776172652E20566575696C6CE9
:102BD000657A206D65747472652061206A6F757204
:102BE000206C65206669726D776172652E204C27B6
:102BF000696D7072657373696F6E20616E6E756C4E
:102C000065652E004368617566666520706F757234
:102C100020636F757065720043686175662E207061
:102C20006F75722072656D6F6E74657200446961B4
:102C30006D65747265206465206C612062757365D2
:102C40002064616E73206C6573207265676C6167C8
:102C50006573206E6520636F72726573706F6E644A
:102C60002070617320612063656C75692064616EFA
:102C700073206C6520472D436F64652E20436F6E73
:102C800074696E7565723F004469616D6574726543
:102C9000206465206C6120627573652064616E73C9
:102CA000206C6573207265676C61676573206E6563
:102CB00020636F72726573706F6E64207061732031
:102CC000612063656C75692064616E73206C65209A
:102CD000472D436F64652E204D65726369206465DE
:102CE000207665726966696572206C652070617214
:102CF000616D657472652064616E73206C6573200C
:102D00007265676C616765732E20496D70726573BB
:102D100073696F6E20616E6E756C65652E006E69ED
:102D20007665617520257320617474656E64750025
:102D300052656E6F6D6D65720053656C6563746985
:102D40006F6E6E657200496E666F206361707465A8
:102D5000757200506C617175650000506C61717521
:102D6000657320656E20616369657200436F7272DE
:102D70006563742D5A3A004D6573757265722078DB
:102D80002D666F6973004164722E495020696D7021
:102D900072696D616E74653A000000000000000009
:102DA0000000000000000000000000000000000023
:102DB0000000000000000000000000000000000013
:102DC0000000000000000000000000000000000003
:102DD00000000000000000000000000000000000F3
:10310000E300526573756D696E67207072696E7445
:1031100000B70050494E44412048656174696E67AC
:1031200000280043616C6962726174696F6E20648B
:103130006F6E6500260043616C6962726174696E2E
:1031400067205A00160042656420646F6E650017A0
:10315000004265642048656174696E6700640048D8
:10316000656174696E6720646F6E652E0065004846
:10317000656174696E67008A004D31313720466998
:10318000727374206C617965722063616C2E00B576
:10319000005049442063616C2E2066696E69736833
:1031A000656400B4005049442063616C2E00D40073
:1031B0005072696E742070617573656400D7005039
:1031C00072696E742046414E00B2004E6F7A7A6C7E
:1031D000652046414E0093004D4D55206661696C57
:1031E000730095004D4D55206C6F616420666169D8
:1031F0006C73009C004D4D5520706F776572206692
:1032000061696C73001701546F74616C20666169A9
:103210006C7572657300520046696C2E2072756E73
:103220006F757473007A004C617374207072696EEC
:1032300074206661696C7572657300CD00506F779C
:103240006572206661696C7572657300FF00527566
:103250006E6F7574730033004372617368001C01F4
:10326000546F74616C007D004C61737420707269DE
:103270006E74000B00416D6269656E7400FFFF445F
:10328000756D70206D656D6F7279001E01566F6CE3
:10329000746167657300120154656D7065726174C5
:1032A00075726573001E0042656C742073746174DE
:1032B000757300580153656E736F7220696E666F87
:1032C000004900457874727564657220696E666F96
:1032D00000290158595A2063616C2E20646574617D
:1032E000696C73001F01756E6B6E6F776E00A000C6
:1032F0004D4D553220636F6E6E65637465640035A5
:1033000000446174653A001901746F20756E6C6F2A
:1033100061642066696C616D656E74001801746F7C
:10332000206C6F61642066696C616D656E7400D39A
:1033300000507265737320746865206B6E6F620055
:10334000510150726568656174696E6720746F2001
:1033500063757400520150726568656174696E67C7
:1033600020746F20656A65637400D00050726568D0
:10337000656174696E6720746F20756E6C6F61642F
:1033800000CF0050726568656174696E6720746F64
:10339000206C6F6164002D00436F6F6C646F776EFB
:1033A00000C7005072656865617420746865206E9E
:1033B0006F7A7A6C65210047004552524F523A00AD
:1033C000530046696C616D656E7420657874727522
:1033D00064696E672026207769746820636F727253
:1033E00065637420636F6C6F723F001200417574E7
:1033F0006F6C6F6164696E672066696C616D656E84
:1034000074206973206163746976652C206A757312
:103410007420707265737320746865206B6E6F62C0
:1034200020616E6420696E736572742066696C61D8
:103430006D656E742E2E2E001401546F74616C2015
:1034400066696C616D656E74001501546F74616C12
:10345000207072696E742074696D6500560046694B
:103460006C616D656E7420757365640057005072F1
:10347000696E742074696D65003801592064697340
:1034800074616E63652066726F6D206D696E007F7A
:10349000004C65667400E800526967687400920029
:1034A0004D6561737572656420736B657700FD000F
:1034B000536C6967687420736B657700F900536516
:1034C0007665726520736B65770005005B303B3075
:1034D0005D20706F696E74206F6666736574000896
:1034E0000041646A757374696E67205A3A00DB00A4
:1034F000526561722073696465205B756D5D006063
:103500000046726F6E7420736964655B756D5D0053
:10351000E400526967687420736964655B756D5D6A
:103520000080004C6566742073696465205B756D6E
:103530005D00F2005365742074656D70657261748E
:103540007572653A000E0154656D7065726174752F
:1035500072652063616C6962726174696F6E206666
:1035600061696C6564000F0154656D70657261740A
:103570007572652063616C6962726174696F6E2037
:1035800069732066696E697368656420616E642082
:103590006163746976652E2054656D702E206361B9
:1035A0006C6962726174696F6E2063616E2062651E
:1035B0002064697361626C656420696E206D656E5C
:1035C000752053657474696E67732D3E54656D7014
:1035D0002E2063616C2E00510046696C2E207365AD
:1035E0006E736F72004A004578747275646572007C
:1035F000A5004D6F7665205A00A4004D6F766520BA
:103600005900A3004D6F7665205800060043726193
:10361000736820646574656374696F6E2063616E9E
:103620000A6265207475726E6564206F6E206F6E1D
:103630006C7920696E0A4E6F726D616C206D6F64DB
:10364000650007005741524E494E473A0A4372619E
:10365000736820646574656374696F6E0A64697366
:1036600061626C656420696E0A537465616C74688C
:10367000206D6F64650011004175746F6C6F61643B
:10368000696E672066696C616D656E742061766134
:10369000696C61626C65206F6E6C79207768656E0D
:1036A0002066696C616D656E742073656E736F72F0
:1036B000206973207475726E6564206F6E2E2E2ED5
:1036C0000045004552524F523A2046696C616D6583
:1036D0006E742073656E736F72206973206E6F74E1
:1036E00020726573706F6E64696E672C20706C65F4
:1036F00061736520636865636B20636F6E6E6563DD
:1037000074696F6E2E0048014D6F646520636861B7
:103710006E676520696E2070726F67726573732EB5
:103720002E2E002E00436F70792073656C656374D4
:103730006564206C616E67756167653F00EA0053E0
:10374000656C656374206C616E67756167650036D2
:1037500000436F6D6D756E697479206D61646500ED
:10376000230043616C69627261746500FFFF5368F6
:1037700065657420252E37730A5A206F6666736557
:10378000743A20252B312E3366206D6D0A25634354
:103790006F6E74696E75650A256353746172742067
:1037A00066726F6D207A65726F00DA00506C656129
:1037B0007365206C6F61642066696C616D656E7401
:1037C0002066697273742E000A0153656C65637418
:1037D0002066696C616D656E743A00730046696CB1
:1037E000616D656E740024003E43616E63656C001C
:1037F000E60052756E6E696E672057697A61726471
:103800002077696C6C2064656C65746520637572E3
:1038100072656E742063616C6962726174696F6E47
:1038200020726573756C747320616E6420737461AB
:1038300072742066726F6D207468652062656769B6
:103840006E6E696E672E20436F6E74696E75653F8C
:1038500000C90050726568656174696E67206E6F9B
:103860007A7A6C652E20506C65617365207761698A
:10387000742E0086004C6F6164696E672066696C07
:10388000616D656E7400D800506C65617365206968
:103890006E736572742066696C616D656E74206903
:1038A0006E746F20746865206578747275646572D3
:1038B0002C207468656E207072657373207468655F
:1038C000206B6E6F6220746F206C6F61642069746E
:1038D0002E00D900506C6561736520696E73657246
:1038E000742066696C616D656E7420696E746F20FA
:1038F0007468652066697273742074756265206FE0
:103900006620746865204D4D552C207468656E20C6
:10391000707265737320746865206B6E6F622074BB
:103920006F206C6F61642069742E003901546865E2
:10393000207072696E7465722077696C6C20737484
:10394000617274207072696E74696E672061207A8A
:1039500069672D7A6167206C696E652E20526F74DD
:1039600061746520746865206B6E6F6220756E747B
:10397000696C20796F752072656163682074686571
:10398000206F7074696D616C206865696768742E5A
:1039900020436865636B2074686520706963747583
:1039A00072657320696E207468652068616E646258
:1039B0006F6F6B202843616C6962726174696F6E0E
:1039C0002063686170746572292E000C0153656C68
:1039D0006563742074656D706572617475726520BD
:1039E0007768696368206D61746368657320796FB7
:1039F0007572206D6174657269616C2E00300043D0
:103A0000686F6F736520612066696C616D656E74A7
:103A100020666F7220746865204669727374204C4A
:103A2000617965722043616C6962726174696F6E5D
:103A300020616E642073656C65637420697420690D
:103A40006E20746865206F6E2D73637265656E20DD
:103A50006D656E752E00AD004E6F77204920776939
:103A60006C6C2063616C6962726174652064697357
:103A700074616E6365206265747765656E20746934
:103A800070206F6620746865206E6F7A7A6C65208E
:103A9000616E642068656174626564207375726626
:103AA0006163652E002C01596F752063616E206182
:103AB0006C7761797320726573756D6520746865C4
:103AC0002057697A6172642066726F6D2043616C61
:103AD0006962726174696F6E202D3E2057697A6148
:103AE00072642E00BC00506C65617365206368656C
:103AF000636B206F75722068616E64626F6F6B20FC
:103B0000616E6420666978207468652070726F62E7
:103B10006C656D2E205468656E20726573756D65D9
:103B2000207468652057697A617264206279207216
:103B300065626F6F74696E67207468652070726962
:103B40006E7465722E000A00416C6C2069732064EB
:103B50006F6E652E204861707079207072696E7486
:103B6000696E6721007C00496620796F7520686165
:103B70007665206164646974696F6E616C2073742A
:103B800065656C207368656574732C2063616C696E
:103B90006272617465207468656972207072657301
:103BA00065747320696E2053657474696E67732041
:103BB0002D204857205365747570202D205374654F
:103BC000656C207368656574732E00B900506C6570
:103BD00061736520636C65616E2068656174626500
:103BE0006420616E64207468656E20707265737302
:103BF00020746865206B6E6F622E003A00446F205F
:103C0000796F752077616E7420746F2072657065AE
:103C10006174206C617374207374657020746F20FC
:103C2000726561646A7573742064697374616E632C
:103C300065206265747765656E206E6F7A7A6C6553
:103C400020616E6420686561746265643F00F10004
:103C500053656C656374206E6F7A7A6C6520707240
:103C600065686561742074656D70657261747572E4
:103C700065207768696368206D6174636865732087
:103C8000796F7572206D6174657269616C2E007850
:103C90000049732066696C616D656E74206C6F619C
:103CA0006465643F00AE004E6F7720492077696CF1
:103CB0006C2070726568656174206E6F7A7A6C65CD
:103CC00020666F7220504C412E00750049207769A4
:103CD0006C6C2072756E207A2063616C696272610F
:103CE00074696F6E206E6F772E00B1004E6F772073
:103CF00072656D6F766520746865207465737420D5
:103D00007072696E742066726F6D20737465656C75
:103D10002073686565742E00C600506C656173651C
:103D20002072656D6F7665207368697070696E6763
:103D30002068656C706572732066697273742E00FA
:103D40007400492077696C6C2072756E2078797ADE
:103D50002063616C6962726174696F6E206E6F7747
:103D60002E2049742077696C6C2074616B6520612A
:103D70007070726F782E203132206D696E732E0054
:103D80005C0046697273742C20492077696C6C2042
:103D900072756E207468652073656C6674657374E3
:103DA00020746F20636865636B206D6F737420638C
:103DB0006F6D6D6F6E20617373656D626C792070CD
:103DC000726F626C656D732E00660048692C204925
:103DD00020616D20796F7572204F726967696E611D
:103DE0006C205072757361206933207072696E7433
:103DF00065722E20576F756C6420796F75206C6921
:103E00006B65206D6520746F206775696465207926
:103E10006F75207468726F756768207468652073A9
:103E2000657475702070726F636573733F007B00FB
:103E300048692C204920616D20796F7572204F727E
:103E40006967696E616C20507275736120693320F7
:103E50007072696E7465722E20492077696C6C20CF
:103E6000677569646520796F75207468726F75670E
:103E70006820612073686F72742073657475702098
:103E800070726F636573732C20696E207768696345
:103E90006820746865205A2D617869732077696C91
:103EA0006C2062652063616C696272617465642E66
:103EB000205468656E2C20796F752077696C6C20B2
:103EC000626520726561647920746F207072696E1A
:103ED000742E003B00452D636F72726563743A0067
:103EE0005C015A2D636F72726563743A003B01592D
:103EF0002D636F72726563743A003001582D636FE1
:103F000072726563743A004300437574746572009D
:103F100049014D6F64656C004101537472696374AB
:103F20000042015761726E003F01436865636B7325
:103F3000004A014E6F7A7A6C6520642E00F7004EBD
:103F40006F6E6500FA00416C70686162657400F61E
:103F500000536F727400F80054696D6500E70053F8
:103F600044206361726400EA0053656C65637420E9
:103F70006C616E677561676500E50052506920707D
:103F80006F7274000B0154656D702E2063616C2E8E
:103F90000081004C696E2E20636F727265637469D4
:103FA0006F6E0043014857205365747570004C00D4
:103FB000462E206175746F6C6F6164003700446930
:103FC0007361626C6520737465707065727300A2B2
:103FD000004D6F7665206178697300110154656D3D
:103FE0007065726174757265000D0154656D702E97
:103FF0002063616C6962726174696F6E00E00052E7
:10400000657365742058595A2063616C6962722E19
:1040100000B6005049442063616C69627261746942
:104020006F6E001800426564206C6576656C2063D5
:104030006F7272656374008F004D6573682042650E
:1040400064204C6576656C696E6700220043616C84
:10405000696272617465205A00210043616C696273
:10406000726174652058595A00ED0053656C66748E
:1040700065737400190042656C7420746573740074
:10408000280157697A6172640034014C6F616420C1
:10409000616C6C00C000506C656173652070756C5C
:1040A0006C206F75742066696C616D656E74206933
:1040B0006D6D6564696174656C79001B01556E6C8A
:1040C0006F6164696E672066696C616D656E74000E
:1040D000E100526573657400560152656E616D654D
:1040E000005B004669727374206C617965722063AD
:1040F000616C2E00570153656C656374005B01535E
:104100007465656C20736865657473000801537588
:1041100070706F7274004B004661696C207374613B
:104120007473204D4D55004D004661696C207374C9
:104130006174730005015374617469737469637306
:1041400000290043616C6962726174696F6E0010CE
:10415000004175746F4C6F61642066696C616D65B8
:104160006E740042004375742066696C616D656E03
:1041700074003C00456A6563742066696C616D6516
:104180006E74001A01556E6C6F61642066696C6113
:104190006D656E740089004C6F616420746F206ED1
:1041A0006F7A7A6C650084004C6F61642066696C7C
:1041B000616D656E7400A7004E6F205344206361EB
:1041C000726400D2005072696E742066726F6D2046
:1041D000534400E200526573756D65207072696E1C
:1041E0007400B3005061757365207072696E74005D
:1041F000160154756E6500C800507265686561747B
:104200000082004C6976652061646A757374205A77
:10421000007600496E666F2073637265656E005AA2
:104220000046696E697368696E67206D6F76656DAB
:10423000656E7473001C004272696768746E657302
:1042400073005A01417373697374009A0053696C67
:10425000656E740001014F6E636500FE00536F755B
:104260006E6400FC004C6F75640047014D4D552095
:104270004D6F6465002F004372617368206465743C
:104280002E009D00537465616C74680099004E6F38
:10429000726D616C00500046616E732063686563E7
:1042A0006B00510046696C2E2073656E736F72004F
:1042B00067004368616E67652066696C616D656E55
:1042C00074005E00466C6F77000201537065656490
:1042D0000044014D61676E65747320636F6D702ECD
:1042E00000A8004E2F41005D015A2D70726F62656B
:1042F000206E722E0045014D657368002F015469D0
:104300006D656F75740097004D6F6465000C00411A
:1043100075746F00460044696D001B004272696746
:104320006874008D004C6576656C2044696D6D6520
:1043300064008C004C6576656C2042726967687415
:10434000004E0046616E207370656564001D00427A
:10435000656400AF004E6F7A7A6C6500F3005365B8
:104360007474696E677300CE005072696E74206158
:10437000626F7274656400060153746F702070720E
:10438000696E74002B00436865636B696E67206615
:10439000696C6500590046696C6520696E636F6DD4
:1043A000706C6574652E20436F6E74696E75652040
:1043B000616E797761793F00FFFF0452656672652F
:1043C0007368008B004D61696E002101576169744B
:1043D000696E6720666F72206E6F7A7A6C652061F5
:1043E0006E642062656420636F6F6C696E6700EBBA
:1043F0000053656C662074657374204F4B00EC00AD
:1044000053656C66207465737420737461727400F4
:10441000D1005072696E742066616E3A00480045A2
:10442000787472756465722066616E3A002000438C
:10443000616C6962726174696E6720686F6D650096
:104440000900416C6C20636F7272656374006D00CB
:10445000436865636B696E672073656E736F727313
:10446000006C00436865636B696E6720686F7465F4
:104470006E64006A00436865636B696E67206265FD
:1044800064007000436865636B696E67205A206141
:10449000786973006F00436865636B696E672059C4
:1044A0002061786973006E00436865636B696E67AD
:1044B00020582061786973006B00436865636B69FD
:1044C0006E6720656E6473746F7073002A004361B9
:1044D00072642072656D6F766564003C014F66669C
:1044E000003D014F6E003E014261636B005401507C
:1044F00072696E746572206E6F7A7A6C6520646979
:10450000616D6574657220646966666572732066A4
:10451000726F6D2074686520472D636F64652E206F
:10452000506C6561736520636865636B20746865B2
:104530002076616C756520696E2073657474696E90
:1045400067732E205072696E742063616E63656CB0
:104550006C65642E0053015072696E746572206E32
:104560006F7A7A6C65206469616D65746572206428
:104570006966666572732066726F6D207468652067
:10458000472D636F64652E20436F6E74696E756589
:104590003F0098004D4B33206669726D77617265FC
:1045A000206465746563746564206F6E204D4B33C1
:1045B00053207072696E74657200FFFF4657206366
:1045C0007261736820646574656374656421205941
:1045D0006F752063616E20636F6E74696E75652000
:1045E0007072696E74696E672E204465627567200B
:1045F0006461746120617661696C61626C652066DA
:104600006F7220616E616C797369732E20436F6ED7
:104610007461637420737570706F727420746F208E
:104620007375626D69742064657461696C732E00C2
:104630001F00426C61636B6F7574206F63637572EA
:104640007265642E205265636F76657220707269A0
:104650006E743F00F00053656C6674657374207768
:10466000696C6C2062652072756E20746F206361C6
:104670006C696272617465206163637572617465EF
:104680002073656E736F726C657373207265686FEB
:104690006D696E672E001301546865726520697339
:1046A000207374696C6C2061206E65656420746F82
:1046B000206D616B65205A2063616C696272617460
:1046C000696F6E2E20506C6561736520666F6C6C2F
:1046D0006F7720746865206D616E75616C2C206346
:1046E00068617074657220466972737420737465B2
:1046F00070732C2073656374696F6E2043616C69FD
:1047000062726174696F6E20666C6F772E00D600DE
:104710005072696E74657220686173206E6F7420C8
:104720006265656E2063616C6962726174656420A4
:104730007965742E20506C6561736520666F6C6CB2
:104740006F7720746865206D616E75616C2C2063D5
:104750006861707465722046697273742073746541
:1047600070732C2073656374696F6E2043616C698C
:1047700062726174696F6E20666C6F772E00B00094
:104780004F6C642073657474696E677320666F750F
:104790006E642E2044656661756C74205049442C0B
:1047A00020457374657073206574632E2077696C7F
:1047B0006C206265207365742E0023015761726E50
:1047C000696E673A20626F7468207072696E7465F2
:1047D00072207479706520616E64206D6F746865F5
:1047E00072626F6172642074797065206368616EB3
:1047F0006765642E0025015761726E696E673A2005
:104800007072696E74657220747970652063686176
:104810006E6765642E0024015761726E696E673A97
:10482000206D6F74686572626F6172642074797054
:1048300065206368616E6765642E003100437261B4
:1048400073682064657465637465642E00000153A9
:104850006F6D652070726F626C656D20656E636F41
:10486000756E74657265642C205A2D6C6576656C66
:10487000696E6720656E666F72636564202E2E2EEA
:10488000004B01472D636F646520736C6963656439
:1048900020666F72206120646966666572656E7459
:1048A000206C6576656C2E20436F6E74696E75653D
:1048B0003F004C01472D636F646520736C6963652D
:1048C0006420666F72206120646966666572656E39
:1048D00074206C6576656C2E20506C656173652064
:1048E00072652D736C69636520746865206D6F64F3
:1048F000656C20616761696E2E205072696E74204C
:1049000063616E63656C6C65642E005001472D63B6
:104910006F646520736C6963656420666F722061E3
:10492000206E65776572206669726D776172652E9B
:1049300020506C65617365207570646174652074C6
:104940006865206669726D776172652E20507269A4
:104950006E742063616E63656C6C65642E004F013C
:10496000472D636F646520736C6963656420666FAF
:10497000722061206E65776572206669726D77615D
:1049800072652E20436F6E74696E75653F004D0130
:10499000472D636F646520736C6963656420666F7F
:1049A00072206120646966666572656E742070723B
:1049B000696E74657220747970652E20436F6E7411
:1049C000696E75653F004E01472D636F6465207306
:1049D0006C6963656420666F722061206469666635
:1049E0006572656E74207072696E74657220747978
:1049F00070652E20506C656173652072652D736C37
:104A000069636520746865206D6F64656C206167FB
:104A100061696E2E205072696E742063616E6365E9
:104A20006C6C65642E00CB005072657373207468E3
:104A300065206B6E6F6220746F20707265686561AF
:104A400074206E6F7A7A6C6520616E6420636F6E7D
:104A500074696E75652E00BF00506C6561736520CA
:104A6000707265737320746865206B6E6F6220745A
:104A70006F20756E6C6F61642066696C616D656E28
:104A80007400DF0052656D6F7665206F6C64206680
:104A9000696C616D656E7420616E642070726573FF
:104AA0007320746865206B6E6F6220746F2073745E
:104AB000617274206C6F6164696E67206E65772027
:104AC00066696C616D656E742E000D00616E642008
:104AD000707265737320746865206B6E6F62007707
:104AE00000496E736572742066696C616D656E74E1
:104AF000002C00436F6C6F72206E6F7420636F72B6
:104B00007265637400540046696C616D656E742053
:104B10006E6F74206C6F6164656400690043686146
:104B20006E67656420636F72726563746C793F00B1
:104B300085004C6F6164696E6720636F6C6F7200F3
:104B400068004368616E676520737563636573739E
:104B50002100BD00506C65617365206F70656E202B
:104B600069646C657220616E642072656D6F766534
:104B70002066696C616D656E74206D616E75616C27
:104B80006C792E0026015761732066696C616D6532
:104B90006E7420756E6C6F616420737563636573EA
:104BA0007366756C3F00CA00506C65617365207553
:104BB0007067726164652E00AB004E657720666990
:104BC000726D776172652076657273696F6E2061B0
:104BD0007661696C61626C653A00220157616974A3
:104BE000696E6720666F722050494E444120707292
:104BF0006F626520636F6F6C696E67007100436858
:104C00006F6F73652065787472756465723A0072AF
:104C10000043686F6F73652066696C616D656E74C3
:104C20003A00A6004E6F206D6F76652E000401538A
:104C30007461626C6520616D6269656E7420746573
:104C40006D70657261747572652032312D32364334
:104C5000206973206E6565646564206120726967F0
:104C60006964207374616E64206973207265717564
:104C7000697265642E00C300506C656173652072B3
:104C8000756E2058595A2063616C6962726174694B
:104C90006F6E2066697273742E002001576169740B
:104CA00020666F7220757365722E2E2E0063004889
:104CB000656174696E672064697361626C65642004
:104CC0006279207361666574792074696D65722EEE
:104CD00000DE005265636F766572696E67207072E0
:104CE000696E7400C500506C6561736520776169F9
:104CF0007400070153544F505045442E001A00428F
:104D00006564206C6576656C696E67206661696CA8
:104D100065642E2053656E736F72206469646E271C
:104D20007420747269676765722E204465627269C7
:104D300073206F6E206E6F7A7A6C653F20576169C1
:104D400074696E6720666F722072657365742E00D9
:104D5000C400506C65617365207570646174652072
:104D60006669726D7761726520696E20796F757200
:104D7000204D4D55322E2057616974696E6720664B
:104D80006F722072657365742E0096004D4D55202C
:104D90004F4B2E20526573756D696E672E2E2E0057
:104DA00090004D4D55204F4B2E20526573756D6907
:104DB0006E6720706F736974696F6E2E2E2E00916E
:104DC000004D4D55204F4B2E20526573756D696E09
:104DD000672074656D70657261747572652E2E2E14
:104DE000005D004669782074686520697373756595
:104DF00020616E64207468656E2070726573732024
:104E0000627574746F6E206F6E204D4D5520756EF7
:104E100069742E00D5005072657373207468652024
:104E20006B6E6F6220746F20726573756D65206E96
:104E30006F7A7A6C652074656D70657261747572D5
:104E4000652E009B004D4D55206E65656473207581
:104E500073657220617474656E74696F6E2E0044A0
:104E60000043757474696E672066696C616D656E68
:104E70007400C100506C656173652072656D6F765A
:104E8000652066696C616D656E7420616E64207466
:104E900068656E20707265737320746865206B6E30
:104EA0006F622E003D00456A656374696E67206617
:104EB000696C616D656E740094004D4D55206C6F8A
:104EC0006164206661696C656400590153686565B9
:104ED00074002B0159657300A9004E6F00AC004EA1
:104EE0006F74207370696E6E696E67000301537092
:104EF000696E6E696E67004F0046616E207465735F
:104F00007400EF0053656C667465737420666169A4
:104F10006C656400400146616C736520747269675A
:104F2000676572696E6700550046696C616D656EF4
:104F3000742073656E736F7200090153776170702E
:104F4000656400610046726F6E742F6C6566742034
:104F500066616E7300140041786973001300417834
:104F60006973206C656E6774680088004C6F6F739E
:104F7000652070756C6C6579007E004C65667420E8
:104F8000686F74656E642066616E3F005F004672F4
:104F90006F6E74207072696E742066616E3F003EA1
:104FA00000456E6473746F70206E6F74206869744E
:104FB000003F00456E6473746F7000A1004D6F7404
:104FC0006F72004000456E6473746F707300270148
:104FD000576972696E67206572726F7200150042C0
:104FE00065642F48656174657200AA004E6F742075
:104FF000636F6E6E6563746564006200486561741A
:1050000065722F546865726D6973746F7200BB00AE
:10501000506C6561736520636865636B3A00EE00F0
:1050200053656C6674657374206572726F722100CB
:105030002D0158595A2063616C6962726174696FFD
:105040006E20616C6C2072696768742E20536B65EA
:10505000772077696C6C20626520636F727265637C
:10506000746564206175746F6D61746963616C6CE3
:10507000792E002E0158595A2063616C6962726161
:1050800074696F6E20616C6C2072696768742E2081
:10509000582F5920617865732061726520736C699F
:1050A0006768746C7920736B657765642E20476F31
:1050B0006F64206A6F622100310158595A20636180
:1050C0006C6962726174696F6E206F6B2E20582F4D
:1050D0005920617865732061726520706572706512
:1050E0006E646963756C61722E20436F6E677261C6
:1050F00074756C6174696F6E732100330158595A6D
:105100002063616C6962726174696F6E20636F6D98
:1051100070726F6D697365642E20526967687420C0
:1051200066726F6E742063616C6962726174696F1C
:105130006E20706F696E74206E6F7420726561638B
:105140006861626C652E00320158595A2063616CA7
:105150006962726174696F6E20636F6D70726F6DDA
:10516000697365642E2046726F6E742063616C698A
:1051700062726174696F6E20706F696E7473206EF5
:105180006F7420726561636861626C652E0037011F
:1051900058595A2063616C6962726174696F6E203C
:1051A0006661696C65642E20526967687420667256
:1051B0006F6E742063616C6962726174696F6E20D6
:1051C000706F696E74206E6F7420726561636861C0
:1051D000626C652E00360158595A2063616C696211
:1051E000726174696F6E206661696C65642E204619
:1051F000726F6E742063616C6962726174696F6E44
:1052000020706F696E7473206E6F742072656163B5
:105210006861626C652E002A0158595A2063616CDE
:105220006962726174696F6E206661696C65642E73
:1052300020506C6561736520636F6E73756C7420AC
:10524000746865206D616E75616C2E00350158596A
:105250005A2063616C6962726174696F6E20666165
:10526000696C65642E204265642063616C696272BA
:105270006174696F6E20706F696E7420776173203E
:105280006E6F7420666F756E642E00BE00506C6584
:1052900061736520706C61636520737465656C2053
:1052A0007368656574206F6E2068656174626564FB
:1052B0002E00380044697374616E63652062657402
:1052C0007765656E20746970206F6620746865204C
:1052D0006E6F7A7A6C6520616E64207468652062F6
:1052E0006564207375726661636520686173206E02
:1052F0006F74206265656E20736574207965742E05
:1053000020506C6561736520666F6C6C6F772074DC
:105310006865206D616E75616C2C206368617074C6
:1053200065722046697273742073746570732C20E3
:1053300073656374696F6E204669727374206C6163
:105340007965722063616C6962726174696F6E2E37
:1053500000B800506C6163652061207368656574F6
:10536000206F6620706170657220756E64657220B2
:10537000746865206E6F7A7A6C6520647572696EE8
:1053800067207468652063616C6962726174696F1B
:105390006E206F66206669727374203420706F69A6
:1053A0006E74732E20496620746865206E6F7A7A59
:1053B0006C65206361746368657320746865207030
:1053C000617065722C20706F776572206F66662041
:1053D000746865207072696E74657220696D6D65A0
:1053E00064696174656C792E00C200506C656173EC
:1053F000652072656D6F766520737465656C2073CA
:10540000686565742066726F6D2068656174626599
:10541000642E007900497320737465656C2073688D
:10542000656574206F6E20686561746265643F0015
:10543000E900536561726368696E67206265642084
:1054400063616C6962726174696F6E20706F696EFE
:1054500074008E004D6561737572696E67207265A8
:10546000666572656E636520686569676874206F3C
:10547000662063616C6962726174696F6E20706F1F
:10548000696E7400BA00506C6561736520636C6569
:10549000616E20746865206E6F7A7A6C6520666F25
:1054A000722063616C6962726174696F6E2E204351
:1054B0006C69636B207768656E20646F6E652E0083
:1054C0000F004175746F20686F6D6500FB00536FAE
:1054D0007274696E672066696C657300FFFF536FB5
:1054E0006D652066696C65732077696C6C206E6FE2
:1054F0007420626520736F727465642E204D61782C
:105500002E204E6F2E206F662066696C65732069B1
:105510006E203120666F6C64657220666F72207336
:105520006F7274696E67206973203130302E0020ED
:10553000746F6F206C6F6E67206578747275736915
:105540006F6E2070726576656E7465640020636F9F
:105550006C6420657874727573696F6E2070726503
:1055600076656E74656400544D4320445249564537
:1055700052204F56455254454D5000256325336403
:105580002F25642563005A25362E32662563005A7E
:105590002020202D2D2D2000256325336425250076
:1055A0002D2D2D00253364002533532533732525F8
:1055B0000020534400202020005553420020257530
:1055C0003E257500203F3E257500204625750020AC
:1055D000463F002046524D20002563253375682044
:1055E00025632563002563253032753A25303275F1
:1055F000256325630025632D2D3A2D2D2020002FB6
:105600002F20616374696F6E3A7061757365002550
:1056100073202534642052504D0A257320253464AC
:105620002052504D0A00686F77746F2E7072757338
:105630006133642E636F6D00666F72756D2E7072CC
:1056400075736133642E636F6D00707275736133AF
:10565000642E636F6D0025533A0A2531382E326669
:105660006D200A25533A0A2531306C6464202530B8
:1056700032646820253032646D0025533A0A2531A2
:10568000382E32666D200A25533A0A2531306C6473
:105690006820253032646D20253032647300253651
:1056A0002E32666D6D0025530A25530A25533A0A9A
:1056B00025533A0025332E32660100252D31342E34
:1056C0003134533A0A25530A252D31342E313453BF
:1056D0003A25332E3266010A252D31342E313453CA
:1056E0003A25332E32660100202030002020310080
:1056F00020496E743A20253364202058643A2536B8
:10570000640A536875743A20253364202059643A3A
:105710002536640046494E444100FFFF50494E443F
:10572000410057697A61726420656E642073746108
:1057300074653A2025640A00FFFF53706F6F6C4A4E
:105740006F696E00FFFF4669726D7761726500FFD9
:10575000FF466C617368416972004572723A20506D
:1057600052494E542046414E204552524F52004518
:1057700072723A20455854522E2046414E204552CE
:10578000524F52002F2F20616374696F6E3A726519
:1057900073756D6564002F2F20616374696F6E3AB5
:1057A000706175736564002F2F20616374696F6E7B
:1057B0003A726573756D65002F2F20616374696F90
:1057C0006E3A63616E63656C0041786973206C6545
:1057D0006E67746820646966666572656E63653AB3
:1057E000252E33660A004D6561737572656420610C
:1057F000786973206C656E6774683A252E33660A83
:10580000004C434420737461747573206368616E47
:1058100067656400534420636172642072656C653F
:105820006173656400452D636F6F6C206D6F6465F7
:105830000045787465726E616C2053504920666C27
:105840006173680A58464C415348206973206E6F53
:1058500074207265732D0A706F6E64696E672E20F6
:105860004C616E67756167650A7377697463682058
:10587000756E617661696C61626C652E002F2F20F8
:10588000616374696F6E3A64756D705F61766169AA
:105890006C61626C65005072757361206933204DD4
:1058A0004B33204F4B2E004372617368446574651F
:1058B000637420454E41424C45442100437261735C
:1058C000684465746563742044495341424C4544BF
:1058D0000058464C415348206E6F742072657370B7
:1058E0006F6E64696E672E002020506C616E6E656D
:1058F0007242756666657242797465733A2000205B
:1059000046726565204D656D6F72793A2000207C86
:1059100020417574686F723A2000204C61737420C6
:10592000557064617465643A200020536F66747723
:1059300061726520526573657400205761746368F5
:10594000646F67205265736574002042726F776ED2
:10595000206F7574205265736574002045787465F6
:10596000726E616C20526573657400506F7765725A
:105970005570006572726F722077726974696E6714
:1059800020746F2066696C6500446F6E65207361DA
:1059900076696E672066696C652E006F6B003F3F0D
:1059A000004E656465726C616E647300506F6C7359
:1059B0006B69004974616C69616E6F004672616E5B
:1059C0006361697300457370616E6F6C0044657547
:1059D000747363680043657374696E6100456E6734
:1059E0006C69736800256C75206279746573207723
:1059F00072697474656E20746F2025532061742061
:105A0000616464726573732030782530346C780A71
:105A100000442564202D20526561642F57726974FB
:105A2000652025530A0020436F756E7420583A2074
:105A30000045303A25642052504D2050524E313AA4
:105A400025642052504D204530403A257520505253
:105A50004E31403A25640A0064756D7020636C65B0
:105A6000617265640A006E6F2064756D70206176E6
:105A700061696C61626C650A00443231202D2072CC
:105A80006561642063726173682064756D700A00DB
:105A90006E6F2064756D7020617661696C61626CF7
:105AA000650A0064756D7020636F6D706C65746558
:105AB0006420696E20256C756D730A0058464C4150
:105AC000534800454550524F4D005352414D0044FC
:105AD0002D31202D20456E646C657373206C6F6FC3
:105AE000700A005344207072696E74696E67206298
:105AF0007974652000416374697665204578747215
:105B0000756465723A2000496E76616C696420653F
:105B100078747275646572005A204F666673657496
:105B200000556E6B6E6F776E20636F6D6D616E6486
:105B30003A2022004D32303020496E76616C696423
:105B400020657874727564657220007A5F6D617883
:105B50003A20007A5F6D696E3A2000795F6D617856
:105B60003A2000795F6D696E3A2000785F6D617848
:105B70003A2000545249474745524544006F7065EA
:105B80006E00785F6D696E3A20005265706F7274B6
:105B9000696E6720656E6473746F702073746174CE
:105BA00075730053494C454E54004E4F524D414C75
:105BB000002553204D4F44453A2050657263656E71
:105BC0007420646F6E653A20256868643B207072AB
:105BD000696E742074696D652072656D61696E69A6
:105BE0006E6720696E206D696E733A2025643B20D4
:105BF0004368616E676520696E206D696E733A2037
:105C000025640A00456E642066696C65206C6973C2
:105C10007400426567696E2066696C65206C697303
:105C20007400556E6B6E6F776E20256320636F6412
:105C3000653A2025730A000A50494E444120746594
:105C40006D70657261747572653A20252E3166201B
:105C50005A20736869667420286D6D293A20252EB4
:105C60003366000A537465703A2025642F360A00A3
:105C70000A537465703A2025642F362028736B69A7
:105C800070706564290A50494E44412074656D70F6
:105C9000657261747572653A202564205A207368B4
:105CA00069667420286D6D293A300A000A5A4552F7
:105CB0004F3A20252E33660A007374617274207483
:105CC000656D70657261747572653A20252E316656
:105CD0000A0025642020252E326600255320583ADC
:105CE00020252E356620593A20252E3566205A3A31
:105CF00020252E35660A00536C6565702E2E2E0009
:105D000045303A25642052504D0A50524E303A25C3
:105D1000642052504D0A00257500526573656E640B
:105D20000025533A20256C640A25530A0020796423
:105D30005F6D696E3D25752079645F6D61783D25E5
:105D4000752079645F6176673D25752073685F61B2
:105D500076673D25750A002073745F73756D3D2568
:105D6000752079645F73756D3D25752065725F736D
:105D7000756D3D25752065725F6D61783D25750AED
:105D800000496E616374697669747920536875742B
:105D9000646F776E004B494C4C45442E2000507286
:105DA000696E7465722068616C7465642E206B691D
:105DB0006C6C28292063616C6C656421004B494C34
:105DC0004C3A2025640A004D32323120496E76610A
:105DD0006C696420657874727564657220004D3258
:105DE000313820496E76616C69642065787472750B
:105DF00064657220004D31303920496E76616C69DE
